{
	"contracts/nft.sol": {
		"NFTMarketplace": {
			"abi": [
				{
					"inputs": [],
					"stateMutability": "nonpayable",
					"type": "constructor"
				},
				{
					"inputs": [
						{
							"internalType": "address",
							"name": "owner",
							"type": "address"
						}
					],
					"name": "OwnableInvalidOwner",
					"type": "error"
				},
				{
					"inputs": [
						{
							"internalType": "address",
							"name": "account",
							"type": "address"
						}
					],
					"name": "OwnableUnauthorizedAccount",
					"type": "error"
				},
				{
					"anonymous": false,
					"inputs": [
						{
							"indexed": true,
							"internalType": "uint256",
							"name": "itemId",
							"type": "uint256"
						},
						{
							"indexed": true,
							"internalType": "address",
							"name": "creator",
							"type": "address"
						},
						{
							"indexed": false,
							"internalType": "string",
							"name": "uri",
							"type": "string"
						},
						{
							"indexed": false,
							"internalType": "uint256",
							"name": "price",
							"type": "uint256"
						}
					],
					"name": "ItemCreated",
					"type": "event"
				},
				{
					"anonymous": false,
					"inputs": [
						{
							"indexed": true,
							"internalType": "uint256",
							"name": "itemId",
							"type": "uint256"
						},
						{
							"indexed": true,
							"internalType": "address",
							"name": "buyer",
							"type": "address"
						},
						{
							"indexed": false,
							"internalType": "uint256",
							"name": "price",
							"type": "uint256"
						}
					],
					"name": "ItemSold",
					"type": "event"
				},
				{
					"anonymous": false,
					"inputs": [
						{
							"indexed": true,
							"internalType": "address",
							"name": "previousOwner",
							"type": "address"
						},
						{
							"indexed": true,
							"internalType": "address",
							"name": "newOwner",
							"type": "address"
						}
					],
					"name": "OwnershipTransferred",
					"type": "event"
				},
				{
					"inputs": [
						{
							"internalType": "uint256",
							"name": "itemId",
							"type": "uint256"
						}
					],
					"name": "buyItem",
					"outputs": [],
					"stateMutability": "payable",
					"type": "function"
				},
				{
					"inputs": [
						{
							"internalType": "string",
							"name": "uri",
							"type": "string"
						},
						{
							"internalType": "uint256",
							"name": "price",
							"type": "uint256"
						}
					],
					"name": "createItem",
					"outputs": [],
					"stateMutability": "nonpayable",
					"type": "function"
				},
				{
					"inputs": [
						{
							"internalType": "uint256",
							"name": "itemId",
							"type": "uint256"
						}
					],
					"name": "getItem",
					"outputs": [
						{
							"internalType": "uint256",
							"name": "id",
							"type": "uint256"
						},
						{
							"internalType": "address",
							"name": "creator",
							"type": "address"
						},
						{
							"internalType": "string",
							"name": "uri",
							"type": "string"
						},
						{
							"internalType": "uint256",
							"name": "price",
							"type": "uint256"
						},
						{
							"internalType": "bool",
							"name": "sold",
							"type": "bool"
						}
					],
					"stateMutability": "view",
					"type": "function"
				},
				{
					"inputs": [],
					"name": "getItemsSold",
					"outputs": [
						{
							"internalType": "uint256",
							"name": "",
							"type": "uint256"
						}
					],
					"stateMutability": "view",
					"type": "function"
				},
				{
					"inputs": [],
					"name": "owner",
					"outputs": [
						{
							"internalType": "address",
							"name": "",
							"type": "address"
						}
					],
					"stateMutability": "view",
					"type": "function"
				},
				{
					"inputs": [],
					"name": "renounceOwnership",
					"outputs": [],
					"stateMutability": "nonpayable",
					"type": "function"
				},
				{
					"inputs": [
						{
							"internalType": "address",
							"name": "newOwner",
							"type": "address"
						}
					],
					"name": "transferOwnership",
					"outputs": [],
					"stateMutability": "nonpayable",
					"type": "function"
				}
			],
			"devdoc": {
				"errors": {
					"OwnableInvalidOwner(address)": [
						{
							"details": "The owner is not a valid owner account. (eg. `address(0)`)"
						}
					],
					"OwnableUnauthorizedAccount(address)": [
						{
							"details": "The caller account is not authorized to perform an operation."
						}
					]
				},
				"kind": "dev",
				"methods": {
					"owner()": {
						"details": "Returns the address of the current owner."
					},
					"renounceOwnership()": {
						"details": "Leaves the contract without owner. It will not be possible to call `onlyOwner` functions. Can only be called by the current owner. NOTE: Renouncing ownership will leave the contract without an owner, thereby disabling any functionality that is only available to the owner."
					},
					"transferOwnership(address)": {
						"details": "Transfers ownership of the contract to a new account (`newOwner`). Can only be called by the current owner."
					}
				},
				"version": 1
			},
			"evm": {
				"assembly": "    /* \"contracts/nft.sol\":309:2047  contract NFTMarketplace is Ownable {... */\n  mstore(0x40, 0x80)\n    /* \"contracts/nft.sol\":2007:2044  constructor() Ownable(msg.sender) { } */\n  callvalue\n  dup1\n  iszero\n  tag_1\n  jumpi\n  0x00\n  dup1\n  revert\ntag_1:\n  pop\n    /* \"contracts/nft.sol\":2029:2039  msg.sender */\n  caller\n    /* \"@openzeppelin/contracts/access/Ownable.sol\":1297:1298  0 */\n  0x00\n    /* \"@openzeppelin/contracts/access/Ownable.sol\":1273:1299  initialOwner == address(0) */\n  0xffffffffffffffffffffffffffffffffffffffff\n  and\n    /* \"@openzeppelin/contracts/access/Ownable.sol\":1273:1285  initialOwner */\n  dup2\n    /* \"@openzeppelin/contracts/access/Ownable.sol\":1273:1299  initialOwner == address(0) */\n  0xffffffffffffffffffffffffffffffffffffffff\n  and\n  sub\n    /* \"@openzeppelin/contracts/access/Ownable.sol\":1269:1364  if (initialOwner == address(0)) {... */\n  tag_5\n  jumpi\n    /* \"@openzeppelin/contracts/access/Ownable.sol\":1350:1351  0 */\n  0x00\n    /* \"@openzeppelin/contracts/access/Ownable.sol\":1322:1353  OwnableInvalidOwner(address(0)) */\n  mload(0x40)\n  0x1e4fbdf700000000000000000000000000000000000000000000000000000000\n  dup2\n  mstore\n  0x04\n  add\n  tag_6\n  swap2\n  swap1\n  tag_7\n  jump\t// in\ntag_6:\n  mload(0x40)\n  dup1\n  swap2\n  sub\n  swap1\n  revert\n    /* \"@openzeppelin/contracts/access/Ownable.sol\":1269:1364  if (initialOwner == address(0)) {... */\ntag_5:\n    /* \"@openzeppelin/contracts/access/Ownable.sol\":1373:1405  _transferOwnership(initialOwner) */\n  tag_8\n    /* \"@openzeppelin/contracts/access/Ownable.sol\":1392:1404  initialOwner */\n  dup2\n    /* \"@openzeppelin/contracts/access/Ownable.sol\":1373:1391  _transferOwnership */\n  shl(0x20, tag_9)\n    /* \"@openzeppelin/contracts/access/Ownable.sol\":1373:1405  _transferOwnership(initialOwner) */\n  0x20\n  shr\n  jump\t// in\ntag_8:\n    /* \"@openzeppelin/contracts/access/Ownable.sol\":1225:1412  constructor(address initialOwner) {... */\n  pop\n    /* \"contracts/nft.sol\":309:2047  contract NFTMarketplace is Ownable {... */\n  jump(tag_11)\n    /* \"@openzeppelin/contracts/access/Ownable.sol\":2912:3099  function _transferOwnership(address newOwner) internal virtual {... */\ntag_9:\n    /* \"@openzeppelin/contracts/access/Ownable.sol\":2985:3001  address oldOwner */\n  0x00\n    /* \"@openzeppelin/contracts/access/Ownable.sol\":3004:3010  _owner */\n  dup1\n  0x00\n  swap1\n  sload\n  swap1\n  0x0100\n  exp\n  swap1\n  div\n  0xffffffffffffffffffffffffffffffffffffffff\n  and\n    /* \"@openzeppelin/contracts/access/Ownable.sol\":2985:3010  address oldOwner = _owner */\n  swap1\n  pop\n    /* \"@openzeppelin/contracts/access/Ownable.sol\":3029:3037  newOwner */\n  dup2\n    /* \"@openzeppelin/contracts/access/Ownable.sol\":3020:3026  _owner */\n  0x00\n  dup1\n    /* \"@openzeppelin/contracts/access/Ownable.sol\":3020:3037  _owner = newOwner */\n  0x0100\n  exp\n  dup2\n  sload\n  dup2\n  0xffffffffffffffffffffffffffffffffffffffff\n  mul\n  not\n  and\n  swap1\n  dup4\n  0xffffffffffffffffffffffffffffffffffffffff\n  and\n  mul\n  or\n  swap1\n  sstore\n  pop\n    /* \"@openzeppelin/contracts/access/Ownable.sol\":3083:3091  newOwner */\n  dup2\n    /* \"@openzeppelin/contracts/access/Ownable.sol\":3052:3092  OwnershipTransferred(oldOwner, newOwner) */\n  0xffffffffffffffffffffffffffffffffffffffff\n  and\n    /* \"@openzeppelin/contracts/access/Ownable.sol\":3073:3081  oldOwner */\n  dup2\n    /* \"@openzeppelin/contracts/access/Ownable.sol\":3052:3092  OwnershipTransferred(oldOwner, newOwner) */\n  0xffffffffffffffffffffffffffffffffffffffff\n  and\n  0x8be0079c531659141344cd1fd0a4f28419497f9722a3daafe3b4186f6b6457e0\n  mload(0x40)\n  mload(0x40)\n  dup1\n  swap2\n  sub\n  swap1\n  log3\n    /* \"@openzeppelin/contracts/access/Ownable.sol\":2975:3099  {... */\n  pop\n    /* \"@openzeppelin/contracts/access/Ownable.sol\":2912:3099  function _transferOwnership(address newOwner) internal virtual {... */\n  pop\n  jump\t// out\n    /* \"#utility.yul\":7:133   */\ntag_13:\n    /* \"#utility.yul\":44:51   */\n  0x00\n    /* \"#utility.yul\":84:126   */\n  0xffffffffffffffffffffffffffffffffffffffff\n    /* \"#utility.yul\":77:82   */\n  dup3\n    /* \"#utility.yul\":73:127   */\n  and\n    /* \"#utility.yul\":62:127   */\n  swap1\n  pop\n    /* \"#utility.yul\":7:133   */\n  swap2\n  swap1\n  pop\n  jump\t// out\n    /* \"#utility.yul\":139:235   */\ntag_14:\n    /* \"#utility.yul\":176:183   */\n  0x00\n    /* \"#utility.yul\":205:229   */\n  tag_19\n    /* \"#utility.yul\":223:228   */\n  dup3\n    /* \"#utility.yul\":205:229   */\n  tag_13\n  jump\t// in\ntag_19:\n    /* \"#utility.yul\":194:229   */\n  swap1\n  pop\n    /* \"#utility.yul\":139:235   */\n  swap2\n  swap1\n  pop\n  jump\t// out\n    /* \"#utility.yul\":241:359   */\ntag_15:\n    /* \"#utility.yul\":328:352   */\n  tag_21\n    /* \"#utility.yul\":346:351   */\n  dup2\n    /* \"#utility.yul\":328:352   */\n  tag_14\n  jump\t// in\ntag_21:\n    /* \"#utility.yul\":323:326   */\n  dup3\n    /* \"#utility.yul\":316:353   */\n  mstore\n    /* \"#utility.yul\":241:359   */\n  pop\n  pop\n  jump\t// out\n    /* \"#utility.yul\":365:587   */\ntag_7:\n    /* \"#utility.yul\":458:462   */\n  0x00\n    /* \"#utility.yul\":496:498   */\n  0x20\n    /* \"#utility.yul\":485:494   */\n  dup3\n    /* \"#utility.yul\":481:499   */\n  add\n    /* \"#utility.yul\":473:499   */\n  swap1\n  pop\n    /* \"#utility.yul\":509:580   */\n  tag_23\n    /* \"#utility.yul\":577:578   */\n  0x00\n    /* \"#utility.yul\":566:575   */\n  dup4\n    /* \"#utility.yul\":562:579   */\n  add\n    /* \"#utility.yul\":553:559   */\n  dup5\n    /* \"#utility.yul\":509:580   */\n  tag_15\n  jump\t// in\ntag_23:\n    /* \"#utility.yul\":365:587   */\n  swap3\n  swap2\n  pop\n  pop\n  jump\t// out\n    /* \"contracts/nft.sol\":309:2047  contract NFTMarketplace is Ownable {... */\ntag_11:\n  dataSize(sub_0)\n  dup1\n  dataOffset(sub_0)\n  0x00\n  codecopy\n  0x00\n  return\nstop\n\nsub_0: assembly {\n        /* \"contracts/nft.sol\":309:2047  contract NFTMarketplace is Ownable {... */\n      mstore(0x40, 0x80)\n      jumpi(tag_1, lt(calldatasize, 0x04))\n      shr(0xe0, calldataload(0x00))\n      dup1\n      0x8da5cb5b\n      gt\n      tag_9\n      jumpi\n      dup1\n      0x8da5cb5b\n      eq\n      tag_5\n      jumpi\n      dup1\n      0xc4b15141\n      eq\n      tag_6\n      jumpi\n      dup1\n      0xe7fb74c7\n      eq\n      tag_7\n      jumpi\n      dup1\n      0xf2fde38b\n      eq\n      tag_8\n      jumpi\n      jump(tag_1)\n    tag_9:\n      dup1\n      0x3129e773\n      eq\n      tag_2\n      jumpi\n      dup1\n      0x715018a6\n      eq\n      tag_3\n      jumpi\n      dup1\n      0x8c551742\n      eq\n      tag_4\n      jumpi\n    tag_1:\n      0x00\n      dup1\n      revert\n        /* \"contracts/nft.sol\":1570:1891  function getItem(uint256 itemId) public view returns (uint256 id, address creator, string memory uri, uint256 price, bool sold) {... */\n    tag_2:\n      callvalue\n      dup1\n      iszero\n      tag_10\n      jumpi\n      0x00\n      dup1\n      revert\n    tag_10:\n      pop\n      tag_11\n      0x04\n      dup1\n      calldatasize\n      sub\n      dup2\n      add\n      swap1\n      tag_12\n      swap2\n      swap1\n      tag_13\n      jump\t// in\n    tag_12:\n      tag_14\n      jump\t// in\n    tag_11:\n      mload(0x40)\n      tag_15\n      swap6\n      swap5\n      swap4\n      swap3\n      swap2\n      swap1\n      tag_16\n      jump\t// in\n    tag_15:\n      mload(0x40)\n      dup1\n      swap2\n      sub\n      swap1\n      return\n        /* \"@openzeppelin/contracts/access/Ownable.sol\":2293:2394  function renounceOwnership() public virtual onlyOwner {... */\n    tag_3:\n      callvalue\n      dup1\n      iszero\n      tag_17\n      jumpi\n      0x00\n      dup1\n      revert\n    tag_17:\n      pop\n      tag_18\n      tag_19\n      jump\t// in\n    tag_18:\n      stop\n        /* \"contracts/nft.sol\":858:1151  function createItem(string memory uri, uint256 price) public onlyOwner {... */\n    tag_4:\n      callvalue\n      dup1\n      iszero\n      tag_20\n      jumpi\n      0x00\n      dup1\n      revert\n    tag_20:\n      pop\n      tag_21\n      0x04\n      dup1\n      calldatasize\n      sub\n      dup2\n      add\n      swap1\n      tag_22\n      swap2\n      swap1\n      tag_23\n      jump\t// in\n    tag_22:\n      tag_24\n      jump\t// in\n    tag_21:\n      stop\n        /* \"@openzeppelin/contracts/access/Ownable.sol\":1638:1723  function owner() public view virtual returns (address) {... */\n    tag_5:\n      callvalue\n      dup1\n      iszero\n      tag_25\n      jumpi\n      0x00\n      dup1\n      revert\n    tag_25:\n      pop\n      tag_26\n      tag_27\n      jump\t// in\n    tag_26:\n      mload(0x40)\n      tag_28\n      swap2\n      swap1\n      tag_29\n      jump\t// in\n    tag_28:\n      mload(0x40)\n      dup1\n      swap2\n      sub\n      swap1\n      return\n        /* \"contracts/nft.sol\":1899:1999  function getItemsSold() public view returns (uint256) {... */\n    tag_6:\n      callvalue\n      dup1\n      iszero\n      tag_30\n      jumpi\n      0x00\n      dup1\n      revert\n    tag_30:\n      pop\n      tag_31\n      tag_32\n      jump\t// in\n    tag_31:\n      mload(0x40)\n      tag_33\n      swap2\n      swap1\n      tag_34\n      jump\t// in\n    tag_33:\n      mload(0x40)\n      dup1\n      swap2\n      sub\n      swap1\n      return\n        /* \"contracts/nft.sol\":1159:1562  function buyItem(uint256 itemId) public payable {... */\n    tag_7:\n      tag_35\n      0x04\n      dup1\n      calldatasize\n      sub\n      dup2\n      add\n      swap1\n      tag_36\n      swap2\n      swap1\n      tag_13\n      jump\t// in\n    tag_36:\n      tag_37\n      jump\t// in\n    tag_35:\n      stop\n        /* \"@openzeppelin/contracts/access/Ownable.sol\":2543:2758  function transferOwnership(address newOwner) public virtual onlyOwner {... */\n    tag_8:\n      callvalue\n      dup1\n      iszero\n      tag_38\n      jumpi\n      0x00\n      dup1\n      revert\n    tag_38:\n      pop\n      tag_39\n      0x04\n      dup1\n      calldatasize\n      sub\n      dup2\n      add\n      swap1\n      tag_40\n      swap2\n      swap1\n      tag_41\n      jump\t// in\n    tag_40:\n      tag_42\n      jump\t// in\n    tag_39:\n      stop\n        /* \"contracts/nft.sol\":1570:1891  function getItem(uint256 itemId) public view returns (uint256 id, address creator, string memory uri, uint256 price, bool sold) {... */\n    tag_14:\n        /* \"contracts/nft.sol\":1624:1634  uint256 id */\n      0x00\n        /* \"contracts/nft.sol\":1636:1651  address creator */\n      dup1\n        /* \"contracts/nft.sol\":1653:1670  string memory uri */\n      0x60\n        /* \"contracts/nft.sol\":1672:1685  uint256 price */\n      0x00\n        /* \"contracts/nft.sol\":1687:1696  bool sold */\n      dup1\n        /* \"contracts/nft.sol\":1709:1729  NFTItem storage item */\n      0x00\n        /* \"contracts/nft.sol\":1732:1738  _items */\n      0x03\n        /* \"contracts/nft.sol\":1732:1746  _items[itemId] */\n      0x00\n        /* \"contracts/nft.sol\":1739:1745  itemId */\n      dup9\n        /* \"contracts/nft.sol\":1732:1746  _items[itemId] */\n      dup2\n      mstore\n      0x20\n      add\n      swap1\n      dup2\n      mstore\n      0x20\n      add\n      0x00\n      keccak256\n        /* \"contracts/nft.sol\":1709:1746  NFTItem storage item = _items[itemId] */\n      swap1\n      pop\n        /* \"contracts/nft.sol\":1762:1766  item */\n      dup1\n        /* \"contracts/nft.sol\":1762:1769  item.id */\n      0x00\n      add\n      sload\n        /* \"contracts/nft.sol\":1757:1769  id = item.id */\n      swap6\n      pop\n        /* \"contracts/nft.sol\":1790:1794  item */\n      dup1\n        /* \"contracts/nft.sol\":1790:1802  item.creator */\n      0x01\n      add\n      0x00\n      swap1\n      sload\n      swap1\n      0x0100\n      exp\n      swap1\n      div\n      0xffffffffffffffffffffffffffffffffffffffff\n      and\n        /* \"contracts/nft.sol\":1780:1802  creator = item.creator */\n      swap5\n      pop\n        /* \"contracts/nft.sol\":1819:1823  item */\n      dup1\n        /* \"contracts/nft.sol\":1819:1827  item.uri */\n      0x02\n      add\n        /* \"contracts/nft.sol\":1813:1827  uri = item.uri */\n      dup1\n      sload\n      tag_44\n      swap1\n      tag_45\n      jump\t// in\n    tag_44:\n      dup1\n      0x1f\n      add\n      0x20\n      dup1\n      swap2\n      div\n      mul\n      0x20\n      add\n      mload(0x40)\n      swap1\n      dup2\n      add\n      0x40\n      mstore\n      dup1\n      swap3\n      swap2\n      swap1\n      dup2\n      dup2\n      mstore\n      0x20\n      add\n      dup3\n      dup1\n      sload\n      tag_46\n      swap1\n      tag_45\n      jump\t// in\n    tag_46:\n      dup1\n      iszero\n      tag_47\n      jumpi\n      dup1\n      0x1f\n      lt\n      tag_48\n      jumpi\n      0x0100\n      dup1\n      dup4\n      sload\n      div\n      mul\n      dup4\n      mstore\n      swap2\n      0x20\n      add\n      swap2\n      jump(tag_47)\n    tag_48:\n      dup3\n      add\n      swap2\n      swap1\n      0x00\n      mstore\n      keccak256(0x00, 0x20)\n      swap1\n    tag_49:\n      dup2\n      sload\n      dup2\n      mstore\n      swap1\n      0x01\n      add\n      swap1\n      0x20\n      add\n      dup1\n      dup4\n      gt\n      tag_49\n      jumpi\n      dup3\n      swap1\n      sub\n      0x1f\n      and\n      dup3\n      add\n      swap2\n    tag_47:\n      pop\n      pop\n      pop\n      pop\n      pop\n      swap4\n      pop\n        /* \"contracts/nft.sol\":1846:1850  item */\n      dup1\n        /* \"contracts/nft.sol\":1846:1856  item.price */\n      0x03\n      add\n      sload\n        /* \"contracts/nft.sol\":1838:1856  price = item.price */\n      swap3\n      pop\n        /* \"contracts/nft.sol\":1874:1878  item */\n      dup1\n        /* \"contracts/nft.sol\":1874:1883  item.sold */\n      0x04\n      add\n      0x00\n      swap1\n      sload\n      swap1\n      0x0100\n      exp\n      swap1\n      div\n      0xff\n      and\n        /* \"contracts/nft.sol\":1867:1883  sold = item.sold */\n      swap2\n      pop\n        /* \"contracts/nft.sol\":1698:1891  {... */\n      pop\n        /* \"contracts/nft.sol\":1570:1891  function getItem(uint256 itemId) public view returns (uint256 id, address creator, string memory uri, uint256 price, bool sold) {... */\n      swap2\n      swap4\n      swap6\n      swap1\n      swap3\n      swap5\n      pop\n      jump\t// out\n        /* \"@openzeppelin/contracts/access/Ownable.sol\":2293:2394  function renounceOwnership() public virtual onlyOwner {... */\n    tag_19:\n        /* \"@openzeppelin/contracts/access/Ownable.sol\":1531:1544  _checkOwner() */\n      tag_51\n        /* \"@openzeppelin/contracts/access/Ownable.sol\":1531:1542  _checkOwner */\n      tag_52\n        /* \"@openzeppelin/contracts/access/Ownable.sol\":1531:1544  _checkOwner() */\n      jump\t// in\n    tag_51:\n        /* \"@openzeppelin/contracts/access/Ownable.sol\":2357:2387  _transferOwnership(address(0)) */\n      tag_54\n        /* \"@openzeppelin/contracts/access/Ownable.sol\":2384:2385  0 */\n      0x00\n        /* \"@openzeppelin/contracts/access/Ownable.sol\":2357:2375  _transferOwnership */\n      tag_55\n        /* \"@openzeppelin/contracts/access/Ownable.sol\":2357:2387  _transferOwnership(address(0)) */\n      jump\t// in\n    tag_54:\n        /* \"@openzeppelin/contracts/access/Ownable.sol\":2293:2394  function renounceOwnership() public virtual onlyOwner {... */\n      jump\t// out\n        /* \"contracts/nft.sol\":858:1151  function createItem(string memory uri, uint256 price) public onlyOwner {... */\n    tag_24:\n        /* \"@openzeppelin/contracts/access/Ownable.sol\":1531:1544  _checkOwner() */\n      tag_57\n        /* \"@openzeppelin/contracts/access/Ownable.sol\":1531:1542  _checkOwner */\n      tag_52\n        /* \"@openzeppelin/contracts/access/Ownable.sol\":1531:1544  _checkOwner() */\n      jump\t// in\n    tag_57:\n        /* \"contracts/nft.sol\":940:960  _itemIds.increment() */\n      tag_59\n        /* \"contracts/nft.sol\":940:948  _itemIds */\n      0x01\n        /* \"contracts/nft.sol\":940:958  _itemIds.increment */\n      tag_60\n        /* \"contracts/nft.sol\":940:960  _itemIds.increment() */\n      jump\t// in\n    tag_59:\n        /* \"contracts/nft.sol\":971:985  uint256 itemId */\n      0x00\n        /* \"contracts/nft.sol\":988:1006  _itemIds.current() */\n      tag_61\n        /* \"contracts/nft.sol\":988:996  _itemIds */\n      0x01\n        /* \"contracts/nft.sol\":988:1004  _itemIds.current */\n      tag_62\n        /* \"contracts/nft.sol\":988:1006  _itemIds.current() */\n      jump\t// in\n    tag_61:\n        /* \"contracts/nft.sol\":971:1006  uint256 itemId = _itemIds.current() */\n      swap1\n      pop\n        /* \"contracts/nft.sol\":1036:1082  NFTItem(itemId, msg.sender, uri, price, false) */\n      mload(0x40)\n      dup1\n      0xa0\n      add\n      0x40\n      mstore\n      dup1\n        /* \"contracts/nft.sol\":1044:1050  itemId */\n      dup3\n        /* \"contracts/nft.sol\":1036:1082  NFTItem(itemId, msg.sender, uri, price, false) */\n      dup2\n      mstore\n      0x20\n      add\n        /* \"contracts/nft.sol\":1052:1062  msg.sender */\n      caller\n        /* \"contracts/nft.sol\":1036:1082  NFTItem(itemId, msg.sender, uri, price, false) */\n      0xffffffffffffffffffffffffffffffffffffffff\n      and\n      dup2\n      mstore\n      0x20\n      add\n        /* \"contracts/nft.sol\":1064:1067  uri */\n      dup5\n        /* \"contracts/nft.sol\":1036:1082  NFTItem(itemId, msg.sender, uri, price, false) */\n      dup2\n      mstore\n      0x20\n      add\n        /* \"contracts/nft.sol\":1069:1074  price */\n      dup4\n        /* \"contracts/nft.sol\":1036:1082  NFTItem(itemId, msg.sender, uri, price, false) */\n      dup2\n      mstore\n      0x20\n      add\n        /* \"contracts/nft.sol\":1076:1081  false */\n      0x00\n        /* \"contracts/nft.sol\":1036:1082  NFTItem(itemId, msg.sender, uri, price, false) */\n      iszero\n      iszero\n      dup2\n      mstore\n      pop\n        /* \"contracts/nft.sol\":1019:1025  _items */\n      0x03\n        /* \"contracts/nft.sol\":1019:1033  _items[itemId] */\n      0x00\n        /* \"contracts/nft.sol\":1026:1032  itemId */\n      dup4\n        /* \"contracts/nft.sol\":1019:1033  _items[itemId] */\n      dup2\n      mstore\n      0x20\n      add\n      swap1\n      dup2\n      mstore\n      0x20\n      add\n      0x00\n      keccak256\n        /* \"contracts/nft.sol\":1019:1082  _items[itemId] = NFTItem(itemId, msg.sender, uri, price, false) */\n      0x00\n      dup3\n      add\n      mload\n      dup2\n      0x00\n      add\n      sstore\n      0x20\n      dup3\n      add\n      mload\n      dup2\n      0x01\n      add\n      exp(0x0100, 0x00)\n      dup2\n      sload\n      dup2\n      0xffffffffffffffffffffffffffffffffffffffff\n      mul\n      not\n      and\n      swap1\n      dup4\n      0xffffffffffffffffffffffffffffffffffffffff\n      and\n      mul\n      or\n      swap1\n      sstore\n      pop\n      0x40\n      dup3\n      add\n      mload\n      dup2\n      0x02\n      add\n      swap1\n      dup2\n      tag_63\n      swap2\n      swap1\n      tag_64\n      jump\t// in\n    tag_63:\n      pop\n      0x60\n      dup3\n      add\n      mload\n      dup2\n      0x03\n      add\n      sstore\n      0x80\n      dup3\n      add\n      mload\n      dup2\n      0x04\n      add\n      exp(0x0100, 0x00)\n      dup2\n      sload\n      dup2\n      0xff\n      mul\n      not\n      and\n      swap1\n      dup4\n      iszero\n      iszero\n      mul\n      or\n      swap1\n      sstore\n      pop\n      swap1\n      pop\n      pop\n        /* \"contracts/nft.sol\":1120:1130  msg.sender */\n      caller\n        /* \"contracts/nft.sol\":1100:1143  ItemCreated(itemId, msg.sender, uri, price) */\n      0xffffffffffffffffffffffffffffffffffffffff\n      and\n        /* \"contracts/nft.sol\":1112:1118  itemId */\n      dup2\n        /* \"contracts/nft.sol\":1100:1143  ItemCreated(itemId, msg.sender, uri, price) */\n      0x1603f20f721362b0691bb408edb3cf01409cd56da9edd4627b178750b7dd49a8\n        /* \"contracts/nft.sol\":1132:1135  uri */\n      dup6\n        /* \"contracts/nft.sol\":1137:1142  price */\n      dup6\n        /* \"contracts/nft.sol\":1100:1143  ItemCreated(itemId, msg.sender, uri, price) */\n      mload(0x40)\n      tag_65\n      swap3\n      swap2\n      swap1\n      tag_66\n      jump\t// in\n    tag_65:\n      mload(0x40)\n      dup1\n      swap2\n      sub\n      swap1\n      log3\n        /* \"contracts/nft.sol\":929:1151  {... */\n      pop\n        /* \"contracts/nft.sol\":858:1151  function createItem(string memory uri, uint256 price) public onlyOwner {... */\n      pop\n      pop\n      jump\t// out\n        /* \"@openzeppelin/contracts/access/Ownable.sol\":1638:1723  function owner() public view virtual returns (address) {... */\n    tag_27:\n        /* \"@openzeppelin/contracts/access/Ownable.sol\":1684:1691  address */\n      0x00\n        /* \"@openzeppelin/contracts/access/Ownable.sol\":1710:1716  _owner */\n      dup1\n      0x00\n      swap1\n      sload\n      swap1\n      0x0100\n      exp\n      swap1\n      div\n      0xffffffffffffffffffffffffffffffffffffffff\n      and\n        /* \"@openzeppelin/contracts/access/Ownable.sol\":1703:1716  return _owner */\n      swap1\n      pop\n        /* \"@openzeppelin/contracts/access/Ownable.sol\":1638:1723  function owner() public view virtual returns (address) {... */\n      swap1\n      jump\t// out\n        /* \"contracts/nft.sol\":1899:1999  function getItemsSold() public view returns (uint256) {... */\n    tag_32:\n        /* \"contracts/nft.sol\":1944:1951  uint256 */\n      0x00\n        /* \"contracts/nft.sol\":1971:1991  _itemsSold.current() */\n      tag_69\n        /* \"contracts/nft.sol\":1971:1981  _itemsSold */\n      0x02\n        /* \"contracts/nft.sol\":1971:1989  _itemsSold.current */\n      tag_62\n        /* \"contracts/nft.sol\":1971:1991  _itemsSold.current() */\n      jump\t// in\n    tag_69:\n        /* \"contracts/nft.sol\":1964:1991  return _itemsSold.current() */\n      swap1\n      pop\n        /* \"contracts/nft.sol\":1899:1999  function getItemsSold() public view returns (uint256) {... */\n      swap1\n      jump\t// out\n        /* \"contracts/nft.sol\":1159:1562  function buyItem(uint256 itemId) public payable {... */\n    tag_37:\n        /* \"contracts/nft.sol\":1218:1238  NFTItem storage item */\n      0x00\n        /* \"contracts/nft.sol\":1241:1247  _items */\n      0x03\n        /* \"contracts/nft.sol\":1241:1255  _items[itemId] */\n      0x00\n        /* \"contracts/nft.sol\":1248:1254  itemId */\n      dup4\n        /* \"contracts/nft.sol\":1241:1255  _items[itemId] */\n      dup2\n      mstore\n      0x20\n      add\n      swap1\n      dup2\n      mstore\n      0x20\n      add\n      0x00\n      keccak256\n        /* \"contracts/nft.sol\":1218:1255  NFTItem storage item = _items[itemId] */\n      swap1\n      pop\n        /* \"contracts/nft.sol\":1287:1292  false */\n      0x00\n        /* \"contracts/nft.sol\":1274:1292  item.sold == false */\n      iszero\n      iszero\n        /* \"contracts/nft.sol\":1274:1278  item */\n      dup2\n        /* \"contracts/nft.sol\":1274:1283  item.sold */\n      0x04\n      add\n      0x00\n      swap1\n      sload\n      swap1\n      0x0100\n      exp\n      swap1\n      div\n      0xff\n      and\n        /* \"contracts/nft.sol\":1274:1292  item.sold == false */\n      iszero\n      iszero\n      eq\n        /* \"contracts/nft.sol\":1266:1314  require(item.sold == false, \"Item already sold\") */\n      tag_71\n      jumpi\n      mload(0x40)\n      0x08c379a000000000000000000000000000000000000000000000000000000000\n      dup2\n      mstore\n      0x04\n      add\n      tag_72\n      swap1\n      tag_73\n      jump\t// in\n    tag_72:\n      mload(0x40)\n      dup1\n      swap2\n      sub\n      swap1\n      revert\n    tag_71:\n        /* \"contracts/nft.sol\":1346:1350  item */\n      dup1\n        /* \"contracts/nft.sol\":1346:1356  item.price */\n      0x03\n      add\n      sload\n        /* \"contracts/nft.sol\":1333:1342  msg.value */\n      callvalue\n        /* \"contracts/nft.sol\":1333:1356  msg.value >= item.price */\n      lt\n      iszero\n        /* \"contracts/nft.sol\":1325:1379  require(msg.value >= item.price, \"Insufficient funds\") */\n      tag_74\n      jumpi\n      mload(0x40)\n      0x08c379a000000000000000000000000000000000000000000000000000000000\n      dup2\n      mstore\n      0x04\n      add\n      tag_75\n      swap1\n      tag_76\n      jump\t// in\n    tag_75:\n      mload(0x40)\n      dup1\n      swap2\n      sub\n      swap1\n      revert\n    tag_74:\n        /* \"contracts/nft.sol\":1404:1408  true */\n      0x01\n        /* \"contracts/nft.sol\":1392:1396  item */\n      dup2\n        /* \"contracts/nft.sol\":1392:1401  item.sold */\n      0x04\n      add\n      0x00\n        /* \"contracts/nft.sol\":1392:1408  item.sold = true */\n      0x0100\n      exp\n      dup2\n      sload\n      dup2\n      0xff\n      mul\n      not\n      and\n      swap1\n      dup4\n      iszero\n      iszero\n      mul\n      or\n      swap1\n      sstore\n      pop\n        /* \"contracts/nft.sol\":1419:1441  _itemsSold.increment() */\n      tag_77\n        /* \"contracts/nft.sol\":1419:1429  _itemsSold */\n      0x02\n        /* \"contracts/nft.sol\":1419:1439  _itemsSold.increment */\n      tag_60\n        /* \"contracts/nft.sol\":1419:1441  _itemsSold.increment() */\n      jump\t// in\n    tag_77:\n        /* \"contracts/nft.sol\":1476:1486  msg.sender */\n      caller\n        /* \"contracts/nft.sol\":1459:1499  ItemSold(itemId, msg.sender, item.price) */\n      0xffffffffffffffffffffffffffffffffffffffff\n      and\n        /* \"contracts/nft.sol\":1468:1474  itemId */\n      dup3\n        /* \"contracts/nft.sol\":1459:1499  ItemSold(itemId, msg.sender, item.price) */\n      0xa574c741071bb18f51fa88c17aeefec514bebf670ca22a3736fba6504ecbb763\n        /* \"contracts/nft.sol\":1488:1492  item */\n      dup4\n        /* \"contracts/nft.sol\":1488:1498  item.price */\n      0x03\n      add\n      sload\n        /* \"contracts/nft.sol\":1459:1499  ItemSold(itemId, msg.sender, item.price) */\n      mload(0x40)\n      tag_78\n      swap2\n      swap1\n      tag_34\n      jump\t// in\n    tag_78:\n      mload(0x40)\n      dup1\n      swap2\n      sub\n      swap1\n      log3\n        /* \"contracts/nft.sol\":1520:1524  item */\n      dup1\n        /* \"contracts/nft.sol\":1520:1532  item.creator */\n      0x01\n      add\n      0x00\n      swap1\n      sload\n      swap1\n      0x0100\n      exp\n      swap1\n      div\n      0xffffffffffffffffffffffffffffffffffffffff\n      and\n        /* \"contracts/nft.sol\":1512:1542  payable(item.creator).transfer */\n      0xffffffffffffffffffffffffffffffffffffffff\n      and\n        /* \"contracts/nft.sol\":1512:1554  payable(item.creator).transfer(item.price) */\n      0x08fc\n        /* \"contracts/nft.sol\":1543:1547  item */\n      dup3\n        /* \"contracts/nft.sol\":1543:1553  item.price */\n      0x03\n      add\n      sload\n        /* \"contracts/nft.sol\":1512:1554  payable(item.creator).transfer(item.price) */\n      swap1\n      dup2\n      iszero\n      mul\n      swap1\n      mload(0x40)\n      0x00\n      mload(0x40)\n      dup1\n      dup4\n      sub\n      dup2\n      dup6\n      dup9\n      dup9\n      call\n      swap4\n      pop\n      pop\n      pop\n      pop\n      iszero\n      dup1\n      iszero\n      tag_80\n      jumpi\n      returndatasize\n      0x00\n      dup1\n      returndatacopy\n      revert(0x00, returndatasize)\n    tag_80:\n      pop\n        /* \"contracts/nft.sol\":1207:1562  {... */\n      pop\n        /* \"contracts/nft.sol\":1159:1562  function buyItem(uint256 itemId) public payable {... */\n      pop\n      jump\t// out\n        /* \"@openzeppelin/contracts/access/Ownable.sol\":2543:2758  function transferOwnership(address newOwner) public virtual onlyOwner {... */\n    tag_42:\n        /* \"@openzeppelin/contracts/access/Ownable.sol\":1531:1544  _checkOwner() */\n      tag_82\n        /* \"@openzeppelin/contracts/access/Ownable.sol\":1531:1542  _checkOwner */\n      tag_52\n        /* \"@openzeppelin/contracts/access/Ownable.sol\":1531:1544  _checkOwner() */\n      jump\t// in\n    tag_82:\n        /* \"@openzeppelin/contracts/access/Ownable.sol\":2647:2648  0 */\n      0x00\n        /* \"@openzeppelin/contracts/access/Ownable.sol\":2627:2649  newOwner == address(0) */\n      0xffffffffffffffffffffffffffffffffffffffff\n      and\n        /* \"@openzeppelin/contracts/access/Ownable.sol\":2627:2635  newOwner */\n      dup2\n        /* \"@openzeppelin/contracts/access/Ownable.sol\":2627:2649  newOwner == address(0) */\n      0xffffffffffffffffffffffffffffffffffffffff\n      and\n      sub\n        /* \"@openzeppelin/contracts/access/Ownable.sol\":2623:2714  if (newOwner == address(0)) {... */\n      tag_84\n      jumpi\n        /* \"@openzeppelin/contracts/access/Ownable.sol\":2700:2701  0 */\n      0x00\n        /* \"@openzeppelin/contracts/access/Ownable.sol\":2672:2703  OwnableInvalidOwner(address(0)) */\n      mload(0x40)\n      0x1e4fbdf700000000000000000000000000000000000000000000000000000000\n      dup2\n      mstore\n      0x04\n      add\n      tag_85\n      swap2\n      swap1\n      tag_29\n      jump\t// in\n    tag_85:\n      mload(0x40)\n      dup1\n      swap2\n      sub\n      swap1\n      revert\n        /* \"@openzeppelin/contracts/access/Ownable.sol\":2623:2714  if (newOwner == address(0)) {... */\n    tag_84:\n        /* \"@openzeppelin/contracts/access/Ownable.sol\":2723:2751  _transferOwnership(newOwner) */\n      tag_86\n        /* \"@openzeppelin/contracts/access/Ownable.sol\":2742:2750  newOwner */\n      dup2\n        /* \"@openzeppelin/contracts/access/Ownable.sol\":2723:2741  _transferOwnership */\n      tag_55\n        /* \"@openzeppelin/contracts/access/Ownable.sol\":2723:2751  _transferOwnership(newOwner) */\n      jump\t// in\n    tag_86:\n        /* \"@openzeppelin/contracts/access/Ownable.sol\":2543:2758  function transferOwnership(address newOwner) public virtual onlyOwner {... */\n      pop\n      jump\t// out\n        /* \"@openzeppelin/contracts/access/Ownable.sol\":1796:1958  function _checkOwner() internal view virtual {... */\n    tag_52:\n        /* \"@openzeppelin/contracts/access/Ownable.sol\":1866:1878  _msgSender() */\n      tag_88\n        /* \"@openzeppelin/contracts/access/Ownable.sol\":1866:1876  _msgSender */\n      tag_89\n        /* \"@openzeppelin/contracts/access/Ownable.sol\":1866:1878  _msgSender() */\n      jump\t// in\n    tag_88:\n        /* \"@openzeppelin/contracts/access/Ownable.sol\":1855:1878  owner() != _msgSender() */\n      0xffffffffffffffffffffffffffffffffffffffff\n      and\n        /* \"@openzeppelin/contracts/access/Ownable.sol\":1855:1862  owner() */\n      tag_90\n        /* \"@openzeppelin/contracts/access/Ownable.sol\":1855:1860  owner */\n      tag_27\n        /* \"@openzeppelin/contracts/access/Ownable.sol\":1855:1862  owner() */\n      jump\t// in\n    tag_90:\n        /* \"@openzeppelin/contracts/access/Ownable.sol\":1855:1878  owner() != _msgSender() */\n      0xffffffffffffffffffffffffffffffffffffffff\n      and\n      eq\n        /* \"@openzeppelin/contracts/access/Ownable.sol\":1851:1952  if (owner() != _msgSender()) {... */\n      tag_91\n      jumpi\n        /* \"@openzeppelin/contracts/access/Ownable.sol\":1928:1940  _msgSender() */\n      tag_92\n        /* \"@openzeppelin/contracts/access/Ownable.sol\":1928:1938  _msgSender */\n      tag_89\n        /* \"@openzeppelin/contracts/access/Ownable.sol\":1928:1940  _msgSender() */\n      jump\t// in\n    tag_92:\n        /* \"@openzeppelin/contracts/access/Ownable.sol\":1901:1941  OwnableUnauthorizedAccount(_msgSender()) */\n      mload(0x40)\n      0x118cdaa700000000000000000000000000000000000000000000000000000000\n      dup2\n      mstore\n      0x04\n      add\n      tag_93\n      swap2\n      swap1\n      tag_29\n      jump\t// in\n    tag_93:\n      mload(0x40)\n      dup1\n      swap2\n      sub\n      swap1\n      revert\n        /* \"@openzeppelin/contracts/access/Ownable.sol\":1851:1952  if (owner() != _msgSender()) {... */\n    tag_91:\n        /* \"@openzeppelin/contracts/access/Ownable.sol\":1796:1958  function _checkOwner() internal view virtual {... */\n      jump\t// out\n        /* \"@openzeppelin/contracts/access/Ownable.sol\":2912:3099  function _transferOwnership(address newOwner) internal virtual {... */\n    tag_55:\n        /* \"@openzeppelin/contracts/access/Ownable.sol\":2985:3001  address oldOwner */\n      0x00\n        /* \"@openzeppelin/contracts/access/Ownable.sol\":3004:3010  _owner */\n      dup1\n      0x00\n      swap1\n      sload\n      swap1\n      0x0100\n      exp\n      swap1\n      div\n      0xffffffffffffffffffffffffffffffffffffffff\n      and\n        /* \"@openzeppelin/contracts/access/Ownable.sol\":2985:3010  address oldOwner = _owner */\n      swap1\n      pop\n        /* \"@openzeppelin/contracts/access/Ownable.sol\":3029:3037  newOwner */\n      dup2\n        /* \"@openzeppelin/contracts/access/Ownable.sol\":3020:3026  _owner */\n      0x00\n      dup1\n        /* \"@openzeppelin/contracts/access/Ownable.sol\":3020:3037  _owner = newOwner */\n      0x0100\n      exp\n      dup2\n      sload\n      dup2\n      0xffffffffffffffffffffffffffffffffffffffff\n      mul\n      not\n      and\n      swap1\n      dup4\n      0xffffffffffffffffffffffffffffffffffffffff\n      and\n      mul\n      or\n      swap1\n      sstore\n      pop\n        /* \"@openzeppelin/contracts/access/Ownable.sol\":3083:3091  newOwner */\n      dup2\n        /* \"@openzeppelin/contracts/access/Ownable.sol\":3052:3092  OwnershipTransferred(oldOwner, newOwner) */\n      0xffffffffffffffffffffffffffffffffffffffff\n      and\n        /* \"@openzeppelin/contracts/access/Ownable.sol\":3073:3081  oldOwner */\n      dup2\n        /* \"@openzeppelin/contracts/access/Ownable.sol\":3052:3092  OwnershipTransferred(oldOwner, newOwner) */\n      0xffffffffffffffffffffffffffffffffffffffff\n      and\n      0x8be0079c531659141344cd1fd0a4f28419497f9722a3daafe3b4186f6b6457e0\n      mload(0x40)\n      mload(0x40)\n      dup1\n      swap2\n      sub\n      swap1\n      log3\n        /* \"@openzeppelin/contracts/access/Ownable.sol\":2975:3099  {... */\n      pop\n        /* \"@openzeppelin/contracts/access/Ownable.sol\":2912:3099  function _transferOwnership(address newOwner) internal virtual {... */\n      pop\n      jump\t// out\n        /* \"@openzeppelin/contracts/utils/Counters.sol\":945:1068  function increment(Counter storage counter) internal {... */\n    tag_60:\n        /* \"@openzeppelin/contracts/utils/Counters.sol\":1050:1051  1 */\n      0x01\n        /* \"@openzeppelin/contracts/utils/Counters.sol\":1032:1039  counter */\n      dup2\n        /* \"@openzeppelin/contracts/utils/Counters.sol\":1032:1046  counter._value */\n      0x00\n      add\n      0x00\n        /* \"@openzeppelin/contracts/utils/Counters.sol\":1032:1051  counter._value += 1 */\n      dup3\n      dup3\n      sload\n      add\n      swap3\n      pop\n      pop\n      dup2\n      swap1\n      sstore\n      pop\n        /* \"@openzeppelin/contracts/utils/Counters.sol\":945:1068  function increment(Counter storage counter) internal {... */\n      pop\n      jump\t// out\n        /* \"@openzeppelin/contracts/utils/Counters.sol\":827:939  function current(Counter storage counter) internal view returns (uint256) {... */\n    tag_62:\n        /* \"@openzeppelin/contracts/utils/Counters.sol\":892:899  uint256 */\n      0x00\n        /* \"@openzeppelin/contracts/utils/Counters.sol\":918:925  counter */\n      dup2\n        /* \"@openzeppelin/contracts/utils/Counters.sol\":918:932  counter._value */\n      0x00\n      add\n      sload\n        /* \"@openzeppelin/contracts/utils/Counters.sol\":911:932  return counter._value */\n      swap1\n      pop\n        /* \"@openzeppelin/contracts/utils/Counters.sol\":827:939  function current(Counter storage counter) internal view returns (uint256) {... */\n      swap2\n      swap1\n      pop\n      jump\t// out\n        /* \"@openzeppelin/contracts/utils/Context.sol\":656:752  function _msgSender() internal view virtual returns (address) {... */\n    tag_89:\n        /* \"@openzeppelin/contracts/utils/Context.sol\":709:716  address */\n      0x00\n        /* \"@openzeppelin/contracts/utils/Context.sol\":735:745  msg.sender */\n      caller\n        /* \"@openzeppelin/contracts/utils/Context.sol\":728:745  return msg.sender */\n      swap1\n      pop\n        /* \"@openzeppelin/contracts/utils/Context.sol\":656:752  function _msgSender() internal view virtual returns (address) {... */\n      swap1\n      jump\t// out\n        /* \"#utility.yul\":7:82   */\n    tag_98:\n        /* \"#utility.yul\":40:46   */\n      0x00\n        /* \"#utility.yul\":73:75   */\n      0x40\n        /* \"#utility.yul\":67:76   */\n      mload\n        /* \"#utility.yul\":57:76   */\n      swap1\n      pop\n        /* \"#utility.yul\":7:82   */\n      swap1\n      jump\t// out\n        /* \"#utility.yul\":88:205   */\n    tag_99:\n        /* \"#utility.yul\":197:198   */\n      0x00\n        /* \"#utility.yul\":194:195   */\n      dup1\n        /* \"#utility.yul\":187:199   */\n      revert\n        /* \"#utility.yul\":211:328   */\n    tag_100:\n        /* \"#utility.yul\":320:321   */\n      0x00\n        /* \"#utility.yul\":317:318   */\n      dup1\n        /* \"#utility.yul\":310:322   */\n      revert\n        /* \"#utility.yul\":334:411   */\n    tag_101:\n        /* \"#utility.yul\":371:378   */\n      0x00\n        /* \"#utility.yul\":400:405   */\n      dup2\n        /* \"#utility.yul\":389:405   */\n      swap1\n      pop\n        /* \"#utility.yul\":334:411   */\n      swap2\n      swap1\n      pop\n      jump\t// out\n        /* \"#utility.yul\":417:539   */\n    tag_102:\n        /* \"#utility.yul\":490:514   */\n      tag_152\n        /* \"#utility.yul\":508:513   */\n      dup2\n        /* \"#utility.yul\":490:514   */\n      tag_101\n      jump\t// in\n    tag_152:\n        /* \"#utility.yul\":483:488   */\n      dup2\n        /* \"#utility.yul\":480:515   */\n      eq\n        /* \"#utility.yul\":470:533   */\n      tag_153\n      jumpi\n        /* \"#utility.yul\":529:530   */\n      0x00\n        /* \"#utility.yul\":526:527   */\n      dup1\n        /* \"#utility.yul\":519:531   */\n      revert\n        /* \"#utility.yul\":470:533   */\n    tag_153:\n        /* \"#utility.yul\":417:539   */\n      pop\n      jump\t// out\n        /* \"#utility.yul\":545:684   */\n    tag_103:\n        /* \"#utility.yul\":591:596   */\n      0x00\n        /* \"#utility.yul\":629:635   */\n      dup2\n        /* \"#utility.yul\":616:636   */\n      calldataload\n        /* \"#utility.yul\":607:636   */\n      swap1\n      pop\n        /* \"#utility.yul\":645:678   */\n      tag_155\n        /* \"#utility.yul\":672:677   */\n      dup2\n        /* \"#utility.yul\":645:678   */\n      tag_102\n      jump\t// in\n    tag_155:\n        /* \"#utility.yul\":545:684   */\n      swap3\n      swap2\n      pop\n      pop\n      jump\t// out\n        /* \"#utility.yul\":690:1019   */\n    tag_13:\n        /* \"#utility.yul\":749:755   */\n      0x00\n        /* \"#utility.yul\":798:800   */\n      0x20\n        /* \"#utility.yul\":786:795   */\n      dup3\n        /* \"#utility.yul\":777:784   */\n      dup5\n        /* \"#utility.yul\":773:796   */\n      sub\n        /* \"#utility.yul\":769:801   */\n      slt\n        /* \"#utility.yul\":766:885   */\n      iszero\n      tag_157\n      jumpi\n        /* \"#utility.yul\":804:883   */\n      tag_158\n      tag_99\n      jump\t// in\n    tag_158:\n        /* \"#utility.yul\":766:885   */\n    tag_157:\n        /* \"#utility.yul\":924:925   */\n      0x00\n        /* \"#utility.yul\":949:1002   */\n      tag_159\n        /* \"#utility.yul\":994:1001   */\n      dup5\n        /* \"#utility.yul\":985:991   */\n      dup3\n        /* \"#utility.yul\":974:983   */\n      dup6\n        /* \"#utility.yul\":970:992   */\n      add\n        /* \"#utility.yul\":949:1002   */\n      tag_103\n      jump\t// in\n    tag_159:\n        /* \"#utility.yul\":939:1002   */\n      swap2\n      pop\n        /* \"#utility.yul\":895:1012   */\n      pop\n        /* \"#utility.yul\":690:1019   */\n      swap3\n      swap2\n      pop\n      pop\n      jump\t// out\n        /* \"#utility.yul\":1025:1143   */\n    tag_104:\n        /* \"#utility.yul\":1112:1136   */\n      tag_161\n        /* \"#utility.yul\":1130:1135   */\n      dup2\n        /* \"#utility.yul\":1112:1136   */\n      tag_101\n      jump\t// in\n    tag_161:\n        /* \"#utility.yul\":1107:1110   */\n      dup3\n        /* \"#utility.yul\":1100:1137   */\n      mstore\n        /* \"#utility.yul\":1025:1143   */\n      pop\n      pop\n      jump\t// out\n        /* \"#utility.yul\":1149:1275   */\n    tag_105:\n        /* \"#utility.yul\":1186:1193   */\n      0x00\n        /* \"#utility.yul\":1226:1268   */\n      0xffffffffffffffffffffffffffffffffffffffff\n        /* \"#utility.yul\":1219:1224   */\n      dup3\n        /* \"#utility.yul\":1215:1269   */\n      and\n        /* \"#utility.yul\":1204:1269   */\n      swap1\n      pop\n        /* \"#utility.yul\":1149:1275   */\n      swap2\n      swap1\n      pop\n      jump\t// out\n        /* \"#utility.yul\":1281:1377   */\n    tag_106:\n        /* \"#utility.yul\":1318:1325   */\n      0x00\n        /* \"#utility.yul\":1347:1371   */\n      tag_164\n        /* \"#utility.yul\":1365:1370   */\n      dup3\n        /* \"#utility.yul\":1347:1371   */\n      tag_105\n      jump\t// in\n    tag_164:\n        /* \"#utility.yul\":1336:1371   */\n      swap1\n      pop\n        /* \"#utility.yul\":1281:1377   */\n      swap2\n      swap1\n      pop\n      jump\t// out\n        /* \"#utility.yul\":1383:1501   */\n    tag_107:\n        /* \"#utility.yul\":1470:1494   */\n      tag_166\n        /* \"#utility.yul\":1488:1493   */\n      dup2\n        /* \"#utility.yul\":1470:1494   */\n      tag_106\n      jump\t// in\n    tag_166:\n        /* \"#utility.yul\":1465:1468   */\n      dup3\n        /* \"#utility.yul\":1458:1495   */\n      mstore\n        /* \"#utility.yul\":1383:1501   */\n      pop\n      pop\n      jump\t// out\n        /* \"#utility.yul\":1507:1606   */\n    tag_108:\n        /* \"#utility.yul\":1559:1565   */\n      0x00\n        /* \"#utility.yul\":1593:1598   */\n      dup2\n        /* \"#utility.yul\":1587:1599   */\n      mload\n        /* \"#utility.yul\":1577:1599   */\n      swap1\n      pop\n        /* \"#utility.yul\":1507:1606   */\n      swap2\n      swap1\n      pop\n      jump\t// out\n        /* \"#utility.yul\":1612:1781   */\n    tag_109:\n        /* \"#utility.yul\":1696:1707   */\n      0x00\n        /* \"#utility.yul\":1730:1736   */\n      dup3\n        /* \"#utility.yul\":1725:1728   */\n      dup3\n        /* \"#utility.yul\":1718:1737   */\n      mstore\n        /* \"#utility.yul\":1770:1774   */\n      0x20\n        /* \"#utility.yul\":1765:1768   */\n      dup3\n        /* \"#utility.yul\":1761:1775   */\n      add\n        /* \"#utility.yul\":1746:1775   */\n      swap1\n      pop\n        /* \"#utility.yul\":1612:1781   */\n      swap3\n      swap2\n      pop\n      pop\n      jump\t// out\n        /* \"#utility.yul\":1787:1926   */\n    tag_110:\n        /* \"#utility.yul\":1876:1882   */\n      dup3\n        /* \"#utility.yul\":1871:1874   */\n      dup2\n        /* \"#utility.yul\":1866:1869   */\n      dup4\n        /* \"#utility.yul\":1860:1883   */\n      mcopy\n        /* \"#utility.yul\":1917:1918   */\n      0x00\n        /* \"#utility.yul\":1908:1914   */\n      dup4\n        /* \"#utility.yul\":1903:1906   */\n      dup4\n        /* \"#utility.yul\":1899:1915   */\n      add\n        /* \"#utility.yul\":1892:1919   */\n      mstore\n        /* \"#utility.yul\":1787:1926   */\n      pop\n      pop\n      pop\n      jump\t// out\n        /* \"#utility.yul\":1932:2034   */\n    tag_111:\n        /* \"#utility.yul\":1973:1979   */\n      0x00\n        /* \"#utility.yul\":2024:2026   */\n      0x1f\n        /* \"#utility.yul\":2020:2027   */\n      not\n        /* \"#utility.yul\":2015:2017   */\n      0x1f\n        /* \"#utility.yul\":2008:2013   */\n      dup4\n        /* \"#utility.yul\":2004:2018   */\n      add\n        /* \"#utility.yul\":2000:2028   */\n      and\n        /* \"#utility.yul\":1990:2028   */\n      swap1\n      pop\n        /* \"#utility.yul\":1932:2034   */\n      swap2\n      swap1\n      pop\n      jump\t// out\n        /* \"#utility.yul\":2040:2417   */\n    tag_112:\n        /* \"#utility.yul\":2128:2131   */\n      0x00\n        /* \"#utility.yul\":2156:2195   */\n      tag_172\n        /* \"#utility.yul\":2189:2194   */\n      dup3\n        /* \"#utility.yul\":2156:2195   */\n      tag_108\n      jump\t// in\n    tag_172:\n        /* \"#utility.yul\":2211:2282   */\n      tag_173\n        /* \"#utility.yul\":2275:2281   */\n      dup2\n        /* \"#utility.yul\":2270:2273   */\n      dup6\n        /* \"#utility.yul\":2211:2282   */\n      tag_109\n      jump\t// in\n    tag_173:\n        /* \"#utility.yul\":2204:2282   */\n      swap4\n      pop\n        /* \"#utility.yul\":2291:2356   */\n      tag_174\n        /* \"#utility.yul\":2349:2355   */\n      dup2\n        /* \"#utility.yul\":2344:2347   */\n      dup6\n        /* \"#utility.yul\":2337:2341   */\n      0x20\n        /* \"#utility.yul\":2330:2335   */\n      dup7\n        /* \"#utility.yul\":2326:2342   */\n      add\n        /* \"#utility.yul\":2291:2356   */\n      tag_110\n      jump\t// in\n    tag_174:\n        /* \"#utility.yul\":2381:2410   */\n      tag_175\n        /* \"#utility.yul\":2403:2409   */\n      dup2\n        /* \"#utility.yul\":2381:2410   */\n      tag_111\n      jump\t// in\n    tag_175:\n        /* \"#utility.yul\":2376:2379   */\n      dup5\n        /* \"#utility.yul\":2372:2411   */\n      add\n        /* \"#utility.yul\":2365:2411   */\n      swap2\n      pop\n        /* \"#utility.yul\":2132:2417   */\n      pop\n        /* \"#utility.yul\":2040:2417   */\n      swap3\n      swap2\n      pop\n      pop\n      jump\t// out\n        /* \"#utility.yul\":2423:2513   */\n    tag_113:\n        /* \"#utility.yul\":2457:2464   */\n      0x00\n        /* \"#utility.yul\":2500:2505   */\n      dup2\n        /* \"#utility.yul\":2493:2506   */\n      iszero\n        /* \"#utility.yul\":2486:2507   */\n      iszero\n        /* \"#utility.yul\":2475:2507   */\n      swap1\n      pop\n        /* \"#utility.yul\":2423:2513   */\n      swap2\n      swap1\n      pop\n      jump\t// out\n        /* \"#utility.yul\":2519:2628   */\n    tag_114:\n        /* \"#utility.yul\":2600:2621   */\n      tag_178\n        /* \"#utility.yul\":2615:2620   */\n      dup2\n        /* \"#utility.yul\":2600:2621   */\n      tag_113\n      jump\t// in\n    tag_178:\n        /* \"#utility.yul\":2595:2598   */\n      dup3\n        /* \"#utility.yul\":2588:2622   */\n      mstore\n        /* \"#utility.yul\":2519:2628   */\n      pop\n      pop\n      jump\t// out\n        /* \"#utility.yul\":2634:3377   */\n    tag_16:\n        /* \"#utility.yul\":2853:2857   */\n      0x00\n        /* \"#utility.yul\":2891:2894   */\n      0xa0\n        /* \"#utility.yul\":2880:2889   */\n      dup3\n        /* \"#utility.yul\":2876:2895   */\n      add\n        /* \"#utility.yul\":2868:2895   */\n      swap1\n      pop\n        /* \"#utility.yul\":2905:2976   */\n      tag_180\n        /* \"#utility.yul\":2973:2974   */\n      0x00\n        /* \"#utility.yul\":2962:2971   */\n      dup4\n        /* \"#utility.yul\":2958:2975   */\n      add\n        /* \"#utility.yul\":2949:2955   */\n      dup9\n        /* \"#utility.yul\":2905:2976   */\n      tag_104\n      jump\t// in\n    tag_180:\n        /* \"#utility.yul\":2986:3058   */\n      tag_181\n        /* \"#utility.yul\":3054:3056   */\n      0x20\n        /* \"#utility.yul\":3043:3052   */\n      dup4\n        /* \"#utility.yul\":3039:3057   */\n      add\n        /* \"#utility.yul\":3030:3036   */\n      dup8\n        /* \"#utility.yul\":2986:3058   */\n      tag_107\n      jump\t// in\n    tag_181:\n        /* \"#utility.yul\":3105:3114   */\n      dup2\n        /* \"#utility.yul\":3099:3103   */\n      dup2\n        /* \"#utility.yul\":3095:3115   */\n      sub\n        /* \"#utility.yul\":3090:3092   */\n      0x40\n        /* \"#utility.yul\":3079:3088   */\n      dup4\n        /* \"#utility.yul\":3075:3093   */\n      add\n        /* \"#utility.yul\":3068:3116   */\n      mstore\n        /* \"#utility.yul\":3133:3211   */\n      tag_182\n        /* \"#utility.yul\":3206:3210   */\n      dup2\n        /* \"#utility.yul\":3197:3203   */\n      dup7\n        /* \"#utility.yul\":3133:3211   */\n      tag_112\n      jump\t// in\n    tag_182:\n        /* \"#utility.yul\":3125:3211   */\n      swap1\n      pop\n        /* \"#utility.yul\":3221:3293   */\n      tag_183\n        /* \"#utility.yul\":3289:3291   */\n      0x60\n        /* \"#utility.yul\":3278:3287   */\n      dup4\n        /* \"#utility.yul\":3274:3292   */\n      add\n        /* \"#utility.yul\":3265:3271   */\n      dup6\n        /* \"#utility.yul\":3221:3293   */\n      tag_104\n      jump\t// in\n    tag_183:\n        /* \"#utility.yul\":3303:3370   */\n      tag_184\n        /* \"#utility.yul\":3365:3368   */\n      0x80\n        /* \"#utility.yul\":3354:3363   */\n      dup4\n        /* \"#utility.yul\":3350:3369   */\n      add\n        /* \"#utility.yul\":3341:3347   */\n      dup5\n        /* \"#utility.yul\":3303:3370   */\n      tag_114\n      jump\t// in\n    tag_184:\n        /* \"#utility.yul\":2634:3377   */\n      swap7\n      swap6\n      pop\n      pop\n      pop\n      pop\n      pop\n      pop\n      jump\t// out\n        /* \"#utility.yul\":3383:3500   */\n    tag_115:\n        /* \"#utility.yul\":3492:3493   */\n      0x00\n        /* \"#utility.yul\":3489:3490   */\n      dup1\n        /* \"#utility.yul\":3482:3494   */\n      revert\n        /* \"#utility.yul\":3506:3623   */\n    tag_116:\n        /* \"#utility.yul\":3615:3616   */\n      0x00\n        /* \"#utility.yul\":3612:3613   */\n      dup1\n        /* \"#utility.yul\":3605:3617   */\n      revert\n        /* \"#utility.yul\":3629:3809   */\n    tag_117:\n        /* \"#utility.yul\":3677:3754   */\n      0x4e487b7100000000000000000000000000000000000000000000000000000000\n        /* \"#utility.yul\":3674:3675   */\n      0x00\n        /* \"#utility.yul\":3667:3755   */\n      mstore\n        /* \"#utility.yul\":3774:3778   */\n      0x41\n        /* \"#utility.yul\":3771:3772   */\n      0x04\n        /* \"#utility.yul\":3764:3779   */\n      mstore\n        /* \"#utility.yul\":3798:3802   */\n      0x24\n        /* \"#utility.yul\":3795:3796   */\n      0x00\n        /* \"#utility.yul\":3788:3803   */\n      revert\n        /* \"#utility.yul\":3815:4096   */\n    tag_118:\n        /* \"#utility.yul\":3898:3925   */\n      tag_189\n        /* \"#utility.yul\":3920:3924   */\n      dup3\n        /* \"#utility.yul\":3898:3925   */\n      tag_111\n      jump\t// in\n    tag_189:\n        /* \"#utility.yul\":3890:3896   */\n      dup2\n        /* \"#utility.yul\":3886:3926   */\n      add\n        /* \"#utility.yul\":4028:4034   */\n      dup2\n        /* \"#utility.yul\":4016:4026   */\n      dup2\n        /* \"#utility.yul\":4013:4035   */\n      lt\n        /* \"#utility.yul\":3992:4010   */\n      0xffffffffffffffff\n        /* \"#utility.yul\":3980:3990   */\n      dup3\n        /* \"#utility.yul\":3977:4011   */\n      gt\n        /* \"#utility.yul\":3974:4036   */\n      or\n        /* \"#utility.yul\":3971:4059   */\n      iszero\n      tag_190\n      jumpi\n        /* \"#utility.yul\":4039:4057   */\n      tag_191\n      tag_117\n      jump\t// in\n    tag_191:\n        /* \"#utility.yul\":3971:4059   */\n    tag_190:\n        /* \"#utility.yul\":4079:4089   */\n      dup1\n        /* \"#utility.yul\":4075:4077   */\n      0x40\n        /* \"#utility.yul\":4068:4090   */\n      mstore\n        /* \"#utility.yul\":3858:4096   */\n      pop\n        /* \"#utility.yul\":3815:4096   */\n      pop\n      pop\n      jump\t// out\n        /* \"#utility.yul\":4102:4231   */\n    tag_119:\n        /* \"#utility.yul\":4136:4142   */\n      0x00\n        /* \"#utility.yul\":4163:4183   */\n      tag_193\n      tag_98\n      jump\t// in\n    tag_193:\n        /* \"#utility.yul\":4153:4183   */\n      swap1\n      pop\n        /* \"#utility.yul\":4192:4225   */\n      tag_194\n        /* \"#utility.yul\":4220:4224   */\n      dup3\n        /* \"#utility.yul\":4212:4218   */\n      dup3\n        /* \"#utility.yul\":4192:4225   */\n      tag_118\n      jump\t// in\n    tag_194:\n        /* \"#utility.yul\":4102:4231   */\n      swap2\n      swap1\n      pop\n      jump\t// out\n        /* \"#utility.yul\":4237:4545   */\n    tag_120:\n        /* \"#utility.yul\":4299:4303   */\n      0x00\n        /* \"#utility.yul\":4389:4407   */\n      0xffffffffffffffff\n        /* \"#utility.yul\":4381:4387   */\n      dup3\n        /* \"#utility.yul\":4378:4408   */\n      gt\n        /* \"#utility.yul\":4375:4431   */\n      iszero\n      tag_196\n      jumpi\n        /* \"#utility.yul\":4411:4429   */\n      tag_197\n      tag_117\n      jump\t// in\n    tag_197:\n        /* \"#utility.yul\":4375:4431   */\n    tag_196:\n        /* \"#utility.yul\":4449:4478   */\n      tag_198\n        /* \"#utility.yul\":4471:4477   */\n      dup3\n        /* \"#utility.yul\":4449:4478   */\n      tag_111\n      jump\t// in\n    tag_198:\n        /* \"#utility.yul\":4441:4478   */\n      swap1\n      pop\n        /* \"#utility.yul\":4533:4537   */\n      0x20\n        /* \"#utility.yul\":4527:4531   */\n      dup2\n        /* \"#utility.yul\":4523:4538   */\n      add\n        /* \"#utility.yul\":4515:4538   */\n      swap1\n      pop\n        /* \"#utility.yul\":4237:4545   */\n      swap2\n      swap1\n      pop\n      jump\t// out\n        /* \"#utility.yul\":4551:4699   */\n    tag_121:\n        /* \"#utility.yul\":4649:4655   */\n      dup3\n        /* \"#utility.yul\":4644:4647   */\n      dup2\n        /* \"#utility.yul\":4639:4642   */\n      dup4\n        /* \"#utility.yul\":4626:4656   */\n      calldatacopy\n        /* \"#utility.yul\":4690:4691   */\n      0x00\n        /* \"#utility.yul\":4681:4687   */\n      dup4\n        /* \"#utility.yul\":4676:4679   */\n      dup4\n        /* \"#utility.yul\":4672:4688   */\n      add\n        /* \"#utility.yul\":4665:4692   */\n      mstore\n        /* \"#utility.yul\":4551:4699   */\n      pop\n      pop\n      pop\n      jump\t// out\n        /* \"#utility.yul\":4705:5130   */\n    tag_122:\n        /* \"#utility.yul\":4783:4788   */\n      0x00\n        /* \"#utility.yul\":4808:4874   */\n      tag_201\n        /* \"#utility.yul\":4824:4873   */\n      tag_202\n        /* \"#utility.yul\":4866:4872   */\n      dup5\n        /* \"#utility.yul\":4824:4873   */\n      tag_120\n      jump\t// in\n    tag_202:\n        /* \"#utility.yul\":4808:4874   */\n      tag_119\n      jump\t// in\n    tag_201:\n        /* \"#utility.yul\":4799:4874   */\n      swap1\n      pop\n        /* \"#utility.yul\":4897:4903   */\n      dup3\n        /* \"#utility.yul\":4890:4895   */\n      dup2\n        /* \"#utility.yul\":4883:4904   */\n      mstore\n        /* \"#utility.yul\":4935:4939   */\n      0x20\n        /* \"#utility.yul\":4928:4933   */\n      dup2\n        /* \"#utility.yul\":4924:4940   */\n      add\n        /* \"#utility.yul\":4973:4976   */\n      dup5\n        /* \"#utility.yul\":4964:4970   */\n      dup5\n        /* \"#utility.yul\":4959:4962   */\n      dup5\n        /* \"#utility.yul\":4955:4971   */\n      add\n        /* \"#utility.yul\":4952:4977   */\n      gt\n        /* \"#utility.yul\":4949:5061   */\n      iszero\n      tag_203\n      jumpi\n        /* \"#utility.yul\":4980:5059   */\n      tag_204\n      tag_116\n      jump\t// in\n    tag_204:\n        /* \"#utility.yul\":4949:5061   */\n    tag_203:\n        /* \"#utility.yul\":5070:5124   */\n      tag_205\n        /* \"#utility.yul\":5117:5123   */\n      dup5\n        /* \"#utility.yul\":5112:5115   */\n      dup3\n        /* \"#utility.yul\":5107:5110   */\n      dup6\n        /* \"#utility.yul\":5070:5124   */\n      tag_121\n      jump\t// in\n    tag_205:\n        /* \"#utility.yul\":4789:5130   */\n      pop\n        /* \"#utility.yul\":4705:5130   */\n      swap4\n      swap3\n      pop\n      pop\n      pop\n      jump\t// out\n        /* \"#utility.yul\":5150:5490   */\n    tag_123:\n        /* \"#utility.yul\":5206:5211   */\n      0x00\n        /* \"#utility.yul\":5255:5258   */\n      dup3\n        /* \"#utility.yul\":5248:5252   */\n      0x1f\n        /* \"#utility.yul\":5240:5246   */\n      dup4\n        /* \"#utility.yul\":5236:5253   */\n      add\n        /* \"#utility.yul\":5232:5259   */\n      slt\n        /* \"#utility.yul\":5222:5344   */\n      tag_207\n      jumpi\n        /* \"#utility.yul\":5263:5342   */\n      tag_208\n      tag_115\n      jump\t// in\n    tag_208:\n        /* \"#utility.yul\":5222:5344   */\n    tag_207:\n        /* \"#utility.yul\":5380:5386   */\n      dup2\n        /* \"#utility.yul\":5367:5387   */\n      calldataload\n        /* \"#utility.yul\":5405:5484   */\n      tag_209\n        /* \"#utility.yul\":5480:5483   */\n      dup5\n        /* \"#utility.yul\":5472:5478   */\n      dup3\n        /* \"#utility.yul\":5465:5469   */\n      0x20\n        /* \"#utility.yul\":5457:5463   */\n      dup7\n        /* \"#utility.yul\":5453:5470   */\n      add\n        /* \"#utility.yul\":5405:5484   */\n      tag_122\n      jump\t// in\n    tag_209:\n        /* \"#utility.yul\":5396:5484   */\n      swap2\n      pop\n        /* \"#utility.yul\":5212:5490   */\n      pop\n        /* \"#utility.yul\":5150:5490   */\n      swap3\n      swap2\n      pop\n      pop\n      jump\t// out\n        /* \"#utility.yul\":5496:6150   */\n    tag_23:\n        /* \"#utility.yul\":5574:5580   */\n      0x00\n        /* \"#utility.yul\":5582:5588   */\n      dup1\n        /* \"#utility.yul\":5631:5633   */\n      0x40\n        /* \"#utility.yul\":5619:5628   */\n      dup4\n        /* \"#utility.yul\":5610:5617   */\n      dup6\n        /* \"#utility.yul\":5606:5629   */\n      sub\n        /* \"#utility.yul\":5602:5634   */\n      slt\n        /* \"#utility.yul\":5599:5718   */\n      iszero\n      tag_211\n      jumpi\n        /* \"#utility.yul\":5637:5716   */\n      tag_212\n      tag_99\n      jump\t// in\n    tag_212:\n        /* \"#utility.yul\":5599:5718   */\n    tag_211:\n        /* \"#utility.yul\":5785:5786   */\n      0x00\n        /* \"#utility.yul\":5774:5783   */\n      dup4\n        /* \"#utility.yul\":5770:5787   */\n      add\n        /* \"#utility.yul\":5757:5788   */\n      calldataload\n        /* \"#utility.yul\":5815:5833   */\n      0xffffffffffffffff\n        /* \"#utility.yul\":5807:5813   */\n      dup2\n        /* \"#utility.yul\":5804:5834   */\n      gt\n        /* \"#utility.yul\":5801:5918   */\n      iszero\n      tag_213\n      jumpi\n        /* \"#utility.yul\":5837:5916   */\n      tag_214\n      tag_100\n      jump\t// in\n    tag_214:\n        /* \"#utility.yul\":5801:5918   */\n    tag_213:\n        /* \"#utility.yul\":5942:6005   */\n      tag_215\n        /* \"#utility.yul\":5997:6004   */\n      dup6\n        /* \"#utility.yul\":5988:5994   */\n      dup3\n        /* \"#utility.yul\":5977:5986   */\n      dup7\n        /* \"#utility.yul\":5973:5995   */\n      add\n        /* \"#utility.yul\":5942:6005   */\n      tag_123\n      jump\t// in\n    tag_215:\n        /* \"#utility.yul\":5932:6005   */\n      swap3\n      pop\n        /* \"#utility.yul\":5728:6015   */\n      pop\n        /* \"#utility.yul\":6054:6056   */\n      0x20\n        /* \"#utility.yul\":6080:6133   */\n      tag_216\n        /* \"#utility.yul\":6125:6132   */\n      dup6\n        /* \"#utility.yul\":6116:6122   */\n      dup3\n        /* \"#utility.yul\":6105:6114   */\n      dup7\n        /* \"#utility.yul\":6101:6123   */\n      add\n        /* \"#utility.yul\":6080:6133   */\n      tag_103\n      jump\t// in\n    tag_216:\n        /* \"#utility.yul\":6070:6133   */\n      swap2\n      pop\n        /* \"#utility.yul\":6025:6143   */\n      pop\n        /* \"#utility.yul\":5496:6150   */\n      swap3\n      pop\n      swap3\n      swap1\n      pop\n      jump\t// out\n        /* \"#utility.yul\":6156:6378   */\n    tag_29:\n        /* \"#utility.yul\":6249:6253   */\n      0x00\n        /* \"#utility.yul\":6287:6289   */\n      0x20\n        /* \"#utility.yul\":6276:6285   */\n      dup3\n        /* \"#utility.yul\":6272:6290   */\n      add\n        /* \"#utility.yul\":6264:6290   */\n      swap1\n      pop\n        /* \"#utility.yul\":6300:6371   */\n      tag_218\n        /* \"#utility.yul\":6368:6369   */\n      0x00\n        /* \"#utility.yul\":6357:6366   */\n      dup4\n        /* \"#utility.yul\":6353:6370   */\n      add\n        /* \"#utility.yul\":6344:6350   */\n      dup5\n        /* \"#utility.yul\":6300:6371   */\n      tag_107\n      jump\t// in\n    tag_218:\n        /* \"#utility.yul\":6156:6378   */\n      swap3\n      swap2\n      pop\n      pop\n      jump\t// out\n        /* \"#utility.yul\":6384:6606   */\n    tag_34:\n        /* \"#utility.yul\":6477:6481   */\n      0x00\n        /* \"#utility.yul\":6515:6517   */\n      0x20\n        /* \"#utility.yul\":6504:6513   */\n      dup3\n        /* \"#utility.yul\":6500:6518   */\n      add\n        /* \"#utility.yul\":6492:6518   */\n      swap1\n      pop\n        /* \"#utility.yul\":6528:6599   */\n      tag_220\n        /* \"#utility.yul\":6596:6597   */\n      0x00\n        /* \"#utility.yul\":6585:6594   */\n      dup4\n        /* \"#utility.yul\":6581:6598   */\n      add\n        /* \"#utility.yul\":6572:6578   */\n      dup5\n        /* \"#utility.yul\":6528:6599   */\n      tag_104\n      jump\t// in\n    tag_220:\n        /* \"#utility.yul\":6384:6606   */\n      swap3\n      swap2\n      pop\n      pop\n      jump\t// out\n        /* \"#utility.yul\":6612:6734   */\n    tag_124:\n        /* \"#utility.yul\":6685:6709   */\n      tag_222\n        /* \"#utility.yul\":6703:6708   */\n      dup2\n        /* \"#utility.yul\":6685:6709   */\n      tag_106\n      jump\t// in\n    tag_222:\n        /* \"#utility.yul\":6678:6683   */\n      dup2\n        /* \"#utility.yul\":6675:6710   */\n      eq\n        /* \"#utility.yul\":6665:6728   */\n      tag_223\n      jumpi\n        /* \"#utility.yul\":6724:6725   */\n      0x00\n        /* \"#utility.yul\":6721:6722   */\n      dup1\n        /* \"#utility.yul\":6714:6726   */\n      revert\n        /* \"#utility.yul\":6665:6728   */\n    tag_223:\n        /* \"#utility.yul\":6612:6734   */\n      pop\n      jump\t// out\n        /* \"#utility.yul\":6740:6879   */\n    tag_125:\n        /* \"#utility.yul\":6786:6791   */\n      0x00\n        /* \"#utility.yul\":6824:6830   */\n      dup2\n        /* \"#utility.yul\":6811:6831   */\n      calldataload\n        /* \"#utility.yul\":6802:6831   */\n      swap1\n      pop\n        /* \"#utility.yul\":6840:6873   */\n      tag_225\n        /* \"#utility.yul\":6867:6872   */\n      dup2\n        /* \"#utility.yul\":6840:6873   */\n      tag_124\n      jump\t// in\n    tag_225:\n        /* \"#utility.yul\":6740:6879   */\n      swap3\n      swap2\n      pop\n      pop\n      jump\t// out\n        /* \"#utility.yul\":6885:7214   */\n    tag_41:\n        /* \"#utility.yul\":6944:6950   */\n      0x00\n        /* \"#utility.yul\":6993:6995   */\n      0x20\n        /* \"#utility.yul\":6981:6990   */\n      dup3\n        /* \"#utility.yul\":6972:6979   */\n      dup5\n        /* \"#utility.yul\":6968:6991   */\n      sub\n        /* \"#utility.yul\":6964:6996   */\n      slt\n        /* \"#utility.yul\":6961:7080   */\n      iszero\n      tag_227\n      jumpi\n        /* \"#utility.yul\":6999:7078   */\n      tag_228\n      tag_99\n      jump\t// in\n    tag_228:\n        /* \"#utility.yul\":6961:7080   */\n    tag_227:\n        /* \"#utility.yul\":7119:7120   */\n      0x00\n        /* \"#utility.yul\":7144:7197   */\n      tag_229\n        /* \"#utility.yul\":7189:7196   */\n      dup5\n        /* \"#utility.yul\":7180:7186   */\n      dup3\n        /* \"#utility.yul\":7169:7178   */\n      dup6\n        /* \"#utility.yul\":7165:7187   */\n      add\n        /* \"#utility.yul\":7144:7197   */\n      tag_125\n      jump\t// in\n    tag_229:\n        /* \"#utility.yul\":7134:7197   */\n      swap2\n      pop\n        /* \"#utility.yul\":7090:7207   */\n      pop\n        /* \"#utility.yul\":6885:7214   */\n      swap3\n      swap2\n      pop\n      pop\n      jump\t// out\n        /* \"#utility.yul\":7220:7400   */\n    tag_126:\n        /* \"#utility.yul\":7268:7345   */\n      0x4e487b7100000000000000000000000000000000000000000000000000000000\n        /* \"#utility.yul\":7265:7266   */\n      0x00\n        /* \"#utility.yul\":7258:7346   */\n      mstore\n        /* \"#utility.yul\":7365:7369   */\n      0x22\n        /* \"#utility.yul\":7362:7363   */\n      0x04\n        /* \"#utility.yul\":7355:7370   */\n      mstore\n        /* \"#utility.yul\":7389:7393   */\n      0x24\n        /* \"#utility.yul\":7386:7387   */\n      0x00\n        /* \"#utility.yul\":7379:7394   */\n      revert\n        /* \"#utility.yul\":7406:7726   */\n    tag_45:\n        /* \"#utility.yul\":7450:7456   */\n      0x00\n        /* \"#utility.yul\":7487:7488   */\n      0x02\n        /* \"#utility.yul\":7481:7485   */\n      dup3\n        /* \"#utility.yul\":7477:7489   */\n      div\n        /* \"#utility.yul\":7467:7489   */\n      swap1\n      pop\n        /* \"#utility.yul\":7534:7535   */\n      0x01\n        /* \"#utility.yul\":7528:7532   */\n      dup3\n        /* \"#utility.yul\":7524:7536   */\n      and\n        /* \"#utility.yul\":7555:7573   */\n      dup1\n        /* \"#utility.yul\":7545:7626   */\n      tag_232\n      jumpi\n        /* \"#utility.yul\":7611:7615   */\n      0x7f\n        /* \"#utility.yul\":7603:7609   */\n      dup3\n        /* \"#utility.yul\":7599:7616   */\n      and\n        /* \"#utility.yul\":7589:7616   */\n      swap2\n      pop\n        /* \"#utility.yul\":7545:7626   */\n    tag_232:\n        /* \"#utility.yul\":7673:7675   */\n      0x20\n        /* \"#utility.yul\":7665:7671   */\n      dup3\n        /* \"#utility.yul\":7662:7676   */\n      lt\n        /* \"#utility.yul\":7642:7660   */\n      dup2\n        /* \"#utility.yul\":7639:7677   */\n      sub\n        /* \"#utility.yul\":7636:7720   */\n      tag_233\n      jumpi\n        /* \"#utility.yul\":7692:7710   */\n      tag_234\n      tag_126\n      jump\t// in\n    tag_234:\n        /* \"#utility.yul\":7636:7720   */\n    tag_233:\n        /* \"#utility.yul\":7457:7726   */\n      pop\n        /* \"#utility.yul\":7406:7726   */\n      swap2\n      swap1\n      pop\n      jump\t// out\n        /* \"#utility.yul\":7732:7873   */\n    tag_127:\n        /* \"#utility.yul\":7781:7785   */\n      0x00\n        /* \"#utility.yul\":7804:7807   */\n      dup2\n        /* \"#utility.yul\":7796:7807   */\n      swap1\n      pop\n        /* \"#utility.yul\":7827:7830   */\n      dup2\n        /* \"#utility.yul\":7824:7825   */\n      0x00\n        /* \"#utility.yul\":7817:7831   */\n      mstore\n        /* \"#utility.yul\":7861:7865   */\n      0x20\n        /* \"#utility.yul\":7858:7859   */\n      0x00\n        /* \"#utility.yul\":7848:7866   */\n      keccak256\n        /* \"#utility.yul\":7840:7866   */\n      swap1\n      pop\n        /* \"#utility.yul\":7732:7873   */\n      swap2\n      swap1\n      pop\n      jump\t// out\n        /* \"#utility.yul\":7879:7972   */\n    tag_128:\n        /* \"#utility.yul\":7916:7922   */\n      0x00\n        /* \"#utility.yul\":7963:7965   */\n      0x20\n        /* \"#utility.yul\":7958:7960   */\n      0x1f\n        /* \"#utility.yul\":7951:7956   */\n      dup4\n        /* \"#utility.yul\":7947:7961   */\n      add\n        /* \"#utility.yul\":7943:7966   */\n      div\n        /* \"#utility.yul\":7933:7966   */\n      swap1\n      pop\n        /* \"#utility.yul\":7879:7972   */\n      swap2\n      swap1\n      pop\n      jump\t// out\n        /* \"#utility.yul\":7978:8085   */\n    tag_129:\n        /* \"#utility.yul\":8022:8030   */\n      0x00\n        /* \"#utility.yul\":8072:8077   */\n      dup3\n        /* \"#utility.yul\":8066:8070   */\n      dup3\n        /* \"#utility.yul\":8062:8078   */\n      shl\n        /* \"#utility.yul\":8041:8078   */\n      swap1\n      pop\n        /* \"#utility.yul\":7978:8085   */\n      swap3\n      swap2\n      pop\n      pop\n      jump\t// out\n        /* \"#utility.yul\":8091:8484   */\n    tag_130:\n        /* \"#utility.yul\":8160:8166   */\n      0x00\n        /* \"#utility.yul\":8210:8211   */\n      0x08\n        /* \"#utility.yul\":8198:8208   */\n      dup4\n        /* \"#utility.yul\":8194:8212   */\n      mul\n        /* \"#utility.yul\":8233:8330   */\n      tag_239\n        /* \"#utility.yul\":8263:8329   */\n      0xffffffffffffffffffffffffffffffffffffffffffffffffffffffffffffffff\n        /* \"#utility.yul\":8252:8261   */\n      dup3\n        /* \"#utility.yul\":8233:8330   */\n      tag_129\n      jump\t// in\n    tag_239:\n        /* \"#utility.yul\":8351:8390   */\n      tag_240\n        /* \"#utility.yul\":8381:8389   */\n      dup7\n        /* \"#utility.yul\":8370:8379   */\n      dup4\n        /* \"#utility.yul\":8351:8390   */\n      tag_129\n      jump\t// in\n    tag_240:\n        /* \"#utility.yul\":8339:8390   */\n      swap6\n      pop\n        /* \"#utility.yul\":8423:8427   */\n      dup1\n        /* \"#utility.yul\":8419:8428   */\n      not\n        /* \"#utility.yul\":8412:8417   */\n      dup5\n        /* \"#utility.yul\":8408:8429   */\n      and\n        /* \"#utility.yul\":8399:8429   */\n      swap4\n      pop\n        /* \"#utility.yul\":8472:8476   */\n      dup1\n        /* \"#utility.yul\":8462:8470   */\n      dup7\n        /* \"#utility.yul\":8458:8477   */\n      and\n        /* \"#utility.yul\":8451:8456   */\n      dup5\n        /* \"#utility.yul\":8448:8478   */\n      or\n        /* \"#utility.yul\":8438:8478   */\n      swap3\n      pop\n        /* \"#utility.yul\":8167:8484   */\n      pop\n      pop\n        /* \"#utility.yul\":8091:8484   */\n      swap4\n      swap3\n      pop\n      pop\n      pop\n      jump\t// out\n        /* \"#utility.yul\":8490:8550   */\n    tag_131:\n        /* \"#utility.yul\":8518:8521   */\n      0x00\n        /* \"#utility.yul\":8539:8544   */\n      dup2\n        /* \"#utility.yul\":8532:8544   */\n      swap1\n      pop\n        /* \"#utility.yul\":8490:8550   */\n      swap2\n      swap1\n      pop\n      jump\t// out\n        /* \"#utility.yul\":8556:8698   */\n    tag_132:\n        /* \"#utility.yul\":8606:8615   */\n      0x00\n        /* \"#utility.yul\":8639:8692   */\n      tag_243\n        /* \"#utility.yul\":8657:8691   */\n      tag_244\n        /* \"#utility.yul\":8666:8690   */\n      tag_245\n        /* \"#utility.yul\":8684:8689   */\n      dup5\n        /* \"#utility.yul\":8666:8690   */\n      tag_101\n      jump\t// in\n    tag_245:\n        /* \"#utility.yul\":8657:8691   */\n      tag_131\n      jump\t// in\n    tag_244:\n        /* \"#utility.yul\":8639:8692   */\n      tag_101\n      jump\t// in\n    tag_243:\n        /* \"#utility.yul\":8626:8692   */\n      swap1\n      pop\n        /* \"#utility.yul\":8556:8698   */\n      swap2\n      swap1\n      pop\n      jump\t// out\n        /* \"#utility.yul\":8704:8779   */\n    tag_133:\n        /* \"#utility.yul\":8747:8750   */\n      0x00\n        /* \"#utility.yul\":8768:8773   */\n      dup2\n        /* \"#utility.yul\":8761:8773   */\n      swap1\n      pop\n        /* \"#utility.yul\":8704:8779   */\n      swap2\n      swap1\n      pop\n      jump\t// out\n        /* \"#utility.yul\":8785:9054   */\n    tag_134:\n        /* \"#utility.yul\":8895:8934   */\n      tag_248\n        /* \"#utility.yul\":8926:8933   */\n      dup4\n        /* \"#utility.yul\":8895:8934   */\n      tag_132\n      jump\t// in\n    tag_248:\n        /* \"#utility.yul\":8956:9047   */\n      tag_249\n        /* \"#utility.yul\":9005:9046   */\n      tag_250\n        /* \"#utility.yul\":9029:9045   */\n      dup3\n        /* \"#utility.yul\":9005:9046   */\n      tag_133\n      jump\t// in\n    tag_250:\n        /* \"#utility.yul\":8997:9003   */\n      dup5\n        /* \"#utility.yul\":8990:8994   */\n      dup5\n        /* \"#utility.yul\":8984:8995   */\n      sload\n        /* \"#utility.yul\":8956:9047   */\n      tag_130\n      jump\t// in\n    tag_249:\n        /* \"#utility.yul\":8950:8954   */\n      dup3\n        /* \"#utility.yul\":8943:9048   */\n      sstore\n        /* \"#utility.yul\":8861:9054   */\n      pop\n        /* \"#utility.yul\":8785:9054   */\n      pop\n      pop\n      pop\n      jump\t// out\n        /* \"#utility.yul\":9060:9133   */\n    tag_135:\n        /* \"#utility.yul\":9105:9108   */\n      0x00\n        /* \"#utility.yul\":9060:9133   */\n      swap1\n      jump\t// out\n        /* \"#utility.yul\":9139:9328   */\n    tag_136:\n        /* \"#utility.yul\":9216:9248   */\n      tag_253\n      tag_135\n      jump\t// in\n    tag_253:\n        /* \"#utility.yul\":9257:9322   */\n      tag_254\n        /* \"#utility.yul\":9315:9321   */\n      dup2\n        /* \"#utility.yul\":9307:9313   */\n      dup5\n        /* \"#utility.yul\":9301:9305   */\n      dup5\n        /* \"#utility.yul\":9257:9322   */\n      tag_134\n      jump\t// in\n    tag_254:\n        /* \"#utility.yul\":9192:9328   */\n      pop\n        /* \"#utility.yul\":9139:9328   */\n      pop\n      pop\n      jump\t// out\n        /* \"#utility.yul\":9334:9520   */\n    tag_137:\n        /* \"#utility.yul\":9394:9514   */\n    tag_256:\n        /* \"#utility.yul\":9411:9414   */\n      dup2\n        /* \"#utility.yul\":9404:9409   */\n      dup2\n        /* \"#utility.yul\":9401:9415   */\n      lt\n        /* \"#utility.yul\":9394:9514   */\n      iszero\n      tag_258\n      jumpi\n        /* \"#utility.yul\":9465:9504   */\n      tag_259\n        /* \"#utility.yul\":9502:9503   */\n      0x00\n        /* \"#utility.yul\":9495:9500   */\n      dup3\n        /* \"#utility.yul\":9465:9504   */\n      tag_136\n      jump\t// in\n    tag_259:\n        /* \"#utility.yul\":9438:9439   */\n      0x01\n        /* \"#utility.yul\":9431:9436   */\n      dup2\n        /* \"#utility.yul\":9427:9440   */\n      add\n        /* \"#utility.yul\":9418:9440   */\n      swap1\n      pop\n        /* \"#utility.yul\":9394:9514   */\n      jump(tag_256)\n    tag_258:\n        /* \"#utility.yul\":9334:9520   */\n      pop\n      pop\n      jump\t// out\n        /* \"#utility.yul\":9526:10069   */\n    tag_138:\n        /* \"#utility.yul\":9627:9629   */\n      0x1f\n        /* \"#utility.yul\":9622:9625   */\n      dup3\n        /* \"#utility.yul\":9619:9630   */\n      gt\n        /* \"#utility.yul\":9616:10062   */\n      iszero\n      tag_261\n      jumpi\n        /* \"#utility.yul\":9661:9699   */\n      tag_262\n        /* \"#utility.yul\":9693:9698   */\n      dup2\n        /* \"#utility.yul\":9661:9699   */\n      tag_127\n      jump\t// in\n    tag_262:\n        /* \"#utility.yul\":9745:9774   */\n      tag_263\n        /* \"#utility.yul\":9763:9773   */\n      dup5\n        /* \"#utility.yul\":9745:9774   */\n      tag_128\n      jump\t// in\n    tag_263:\n        /* \"#utility.yul\":9735:9743   */\n      dup2\n        /* \"#utility.yul\":9731:9775   */\n      add\n        /* \"#utility.yul\":9928:9930   */\n      0x20\n        /* \"#utility.yul\":9916:9926   */\n      dup6\n        /* \"#utility.yul\":9913:9931   */\n      lt\n        /* \"#utility.yul\":9910:9959   */\n      iszero\n      tag_264\n      jumpi\n        /* \"#utility.yul\":9949:9957   */\n      dup2\n        /* \"#utility.yul\":9934:9957   */\n      swap1\n      pop\n        /* \"#utility.yul\":9910:9959   */\n    tag_264:\n        /* \"#utility.yul\":9972:10052   */\n      tag_265\n        /* \"#utility.yul\":10028:10050   */\n      tag_266\n        /* \"#utility.yul\":10046:10049   */\n      dup6\n        /* \"#utility.yul\":10028:10050   */\n      tag_128\n      jump\t// in\n    tag_266:\n        /* \"#utility.yul\":10018:10026   */\n      dup4\n        /* \"#utility.yul\":10014:10051   */\n      add\n        /* \"#utility.yul\":10001:10012   */\n      dup3\n        /* \"#utility.yul\":9972:10052   */\n      tag_137\n      jump\t// in\n    tag_265:\n        /* \"#utility.yul\":9631:10062   */\n      pop\n      pop\n        /* \"#utility.yul\":9616:10062   */\n    tag_261:\n        /* \"#utility.yul\":9526:10069   */\n      pop\n      pop\n      pop\n      jump\t// out\n        /* \"#utility.yul\":10075:10192   */\n    tag_139:\n        /* \"#utility.yul\":10129:10137   */\n      0x00\n        /* \"#utility.yul\":10179:10184   */\n      dup3\n        /* \"#utility.yul\":10173:10177   */\n      dup3\n        /* \"#utility.yul\":10169:10185   */\n      shr\n        /* \"#utility.yul\":10148:10185   */\n      swap1\n      pop\n        /* \"#utility.yul\":10075:10192   */\n      swap3\n      swap2\n      pop\n      pop\n      jump\t// out\n        /* \"#utility.yul\":10198:10367   */\n    tag_140:\n        /* \"#utility.yul\":10242:10248   */\n      0x00\n        /* \"#utility.yul\":10275:10326   */\n      tag_269\n        /* \"#utility.yul\":10323:10324   */\n      0x00\n        /* \"#utility.yul\":10319:10325   */\n      not\n        /* \"#utility.yul\":10311:10316   */\n      dup5\n        /* \"#utility.yul\":10308:10309   */\n      0x08\n        /* \"#utility.yul\":10304:10317   */\n      mul\n        /* \"#utility.yul\":10275:10326   */\n      tag_139\n      jump\t// in\n    tag_269:\n        /* \"#utility.yul\":10271:10327   */\n      not\n        /* \"#utility.yul\":10356:10360   */\n      dup1\n        /* \"#utility.yul\":10350:10354   */\n      dup4\n        /* \"#utility.yul\":10346:10361   */\n      and\n        /* \"#utility.yul\":10336:10361   */\n      swap2\n      pop\n        /* \"#utility.yul\":10249:10367   */\n      pop\n        /* \"#utility.yul\":10198:10367   */\n      swap3\n      swap2\n      pop\n      pop\n      jump\t// out\n        /* \"#utility.yul\":10372:10667   */\n    tag_141:\n        /* \"#utility.yul\":10448:10452   */\n      0x00\n        /* \"#utility.yul\":10594:10623   */\n      tag_271\n        /* \"#utility.yul\":10619:10622   */\n      dup4\n        /* \"#utility.yul\":10613:10617   */\n      dup4\n        /* \"#utility.yul\":10594:10623   */\n      tag_140\n      jump\t// in\n    tag_271:\n        /* \"#utility.yul\":10586:10623   */\n      swap2\n      pop\n        /* \"#utility.yul\":10656:10659   */\n      dup3\n        /* \"#utility.yul\":10653:10654   */\n      0x02\n        /* \"#utility.yul\":10649:10660   */\n      mul\n        /* \"#utility.yul\":10643:10647   */\n      dup3\n        /* \"#utility.yul\":10640:10661   */\n      or\n        /* \"#utility.yul\":10632:10661   */\n      swap1\n      pop\n        /* \"#utility.yul\":10372:10667   */\n      swap3\n      swap2\n      pop\n      pop\n      jump\t// out\n        /* \"#utility.yul\":10672:12067   */\n    tag_64:\n        /* \"#utility.yul\":10789:10826   */\n      tag_273\n        /* \"#utility.yul\":10822:10825   */\n      dup3\n        /* \"#utility.yul\":10789:10826   */\n      tag_108\n      jump\t// in\n    tag_273:\n        /* \"#utility.yul\":10891:10909   */\n      0xffffffffffffffff\n        /* \"#utility.yul\":10883:10889   */\n      dup2\n        /* \"#utility.yul\":10880:10910   */\n      gt\n        /* \"#utility.yul\":10877:10933   */\n      iszero\n      tag_274\n      jumpi\n        /* \"#utility.yul\":10913:10931   */\n      tag_275\n      tag_117\n      jump\t// in\n    tag_275:\n        /* \"#utility.yul\":10877:10933   */\n    tag_274:\n        /* \"#utility.yul\":10957:10995   */\n      tag_276\n        /* \"#utility.yul\":10989:10993   */\n      dup3\n        /* \"#utility.yul\":10983:10994   */\n      sload\n        /* \"#utility.yul\":10957:10995   */\n      tag_45\n      jump\t// in\n    tag_276:\n        /* \"#utility.yul\":11042:11109   */\n      tag_277\n        /* \"#utility.yul\":11102:11108   */\n      dup3\n        /* \"#utility.yul\":11094:11100   */\n      dup3\n        /* \"#utility.yul\":11088:11092   */\n      dup6\n        /* \"#utility.yul\":11042:11109   */\n      tag_138\n      jump\t// in\n    tag_277:\n        /* \"#utility.yul\":11136:11137   */\n      0x00\n        /* \"#utility.yul\":11160:11164   */\n      0x20\n        /* \"#utility.yul\":11147:11164   */\n      swap1\n      pop\n        /* \"#utility.yul\":11192:11194   */\n      0x1f\n        /* \"#utility.yul\":11184:11190   */\n      dup4\n        /* \"#utility.yul\":11181:11195   */\n      gt\n        /* \"#utility.yul\":11209:11210   */\n      0x01\n        /* \"#utility.yul\":11204:11822   */\n      dup2\n      eq\n      tag_279\n      jumpi\n        /* \"#utility.yul\":11866:11867   */\n      0x00\n        /* \"#utility.yul\":11883:11889   */\n      dup5\n        /* \"#utility.yul\":11880:11957   */\n      iszero\n      tag_280\n      jumpi\n        /* \"#utility.yul\":11932:11941   */\n      dup3\n        /* \"#utility.yul\":11927:11930   */\n      dup8\n        /* \"#utility.yul\":11923:11942   */\n      add\n        /* \"#utility.yul\":11917:11943   */\n      mload\n        /* \"#utility.yul\":11908:11943   */\n      swap1\n      pop\n        /* \"#utility.yul\":11880:11957   */\n    tag_280:\n        /* \"#utility.yul\":11983:12050   */\n      tag_281\n        /* \"#utility.yul\":12043:12049   */\n      dup6\n        /* \"#utility.yul\":12036:12041   */\n      dup3\n        /* \"#utility.yul\":11983:12050   */\n      tag_141\n      jump\t// in\n    tag_281:\n        /* \"#utility.yul\":11977:11981   */\n      dup7\n        /* \"#utility.yul\":11970:12051   */\n      sstore\n        /* \"#utility.yul\":11839:12061   */\n      pop\n        /* \"#utility.yul\":11174:12061   */\n      jump(tag_278)\n        /* \"#utility.yul\":11204:11822   */\n    tag_279:\n        /* \"#utility.yul\":11256:11260   */\n      0x1f\n        /* \"#utility.yul\":11252:11261   */\n      not\n        /* \"#utility.yul\":11244:11250   */\n      dup5\n        /* \"#utility.yul\":11240:11262   */\n      and\n        /* \"#utility.yul\":11290:11327   */\n      tag_282\n        /* \"#utility.yul\":11322:11326   */\n      dup7\n        /* \"#utility.yul\":11290:11327   */\n      tag_127\n      jump\t// in\n    tag_282:\n        /* \"#utility.yul\":11349:11350   */\n      0x00\n        /* \"#utility.yul\":11363:11571   */\n    tag_283:\n        /* \"#utility.yul\":11377:11384   */\n      dup3\n        /* \"#utility.yul\":11374:11375   */\n      dup2\n        /* \"#utility.yul\":11371:11385   */\n      lt\n        /* \"#utility.yul\":11363:11571   */\n      iszero\n      tag_285\n      jumpi\n        /* \"#utility.yul\":11456:11465   */\n      dup5\n        /* \"#utility.yul\":11451:11454   */\n      dup10\n        /* \"#utility.yul\":11447:11466   */\n      add\n        /* \"#utility.yul\":11441:11467   */\n      mload\n        /* \"#utility.yul\":11433:11439   */\n      dup3\n        /* \"#utility.yul\":11426:11468   */\n      sstore\n        /* \"#utility.yul\":11507:11508   */\n      0x01\n        /* \"#utility.yul\":11499:11505   */\n      dup3\n        /* \"#utility.yul\":11495:11509   */\n      add\n        /* \"#utility.yul\":11485:11509   */\n      swap2\n      pop\n        /* \"#utility.yul\":11554:11556   */\n      0x20\n        /* \"#utility.yul\":11543:11552   */\n      dup6\n        /* \"#utility.yul\":11539:11557   */\n      add\n        /* \"#utility.yul\":11526:11557   */\n      swap5\n      pop\n        /* \"#utility.yul\":11400:11404   */\n      0x20\n        /* \"#utility.yul\":11397:11398   */\n      dup2\n        /* \"#utility.yul\":11393:11405   */\n      add\n        /* \"#utility.yul\":11388:11405   */\n      swap1\n      pop\n        /* \"#utility.yul\":11363:11571   */\n      jump(tag_283)\n    tag_285:\n        /* \"#utility.yul\":11599:11605   */\n      dup7\n        /* \"#utility.yul\":11590:11597   */\n      dup4\n        /* \"#utility.yul\":11587:11606   */\n      lt\n        /* \"#utility.yul\":11584:11763   */\n      iszero\n      tag_286\n      jumpi\n        /* \"#utility.yul\":11657:11666   */\n      dup5\n        /* \"#utility.yul\":11652:11655   */\n      dup10\n        /* \"#utility.yul\":11648:11667   */\n      add\n        /* \"#utility.yul\":11642:11668   */\n      mload\n        /* \"#utility.yul\":11700:11748   */\n      tag_287\n        /* \"#utility.yul\":11742:11746   */\n      0x1f\n        /* \"#utility.yul\":11734:11740   */\n      dup10\n        /* \"#utility.yul\":11730:11747   */\n      and\n        /* \"#utility.yul\":11719:11728   */\n      dup3\n        /* \"#utility.yul\":11700:11748   */\n      tag_140\n      jump\t// in\n    tag_287:\n        /* \"#utility.yul\":11692:11698   */\n      dup4\n        /* \"#utility.yul\":11685:11749   */\n      sstore\n        /* \"#utility.yul\":11607:11763   */\n      pop\n        /* \"#utility.yul\":11584:11763   */\n    tag_286:\n        /* \"#utility.yul\":11809:11810   */\n      0x01\n        /* \"#utility.yul\":11805:11806   */\n      0x02\n        /* \"#utility.yul\":11797:11803   */\n      dup9\n        /* \"#utility.yul\":11793:11807   */\n      mul\n        /* \"#utility.yul\":11789:11811   */\n      add\n        /* \"#utility.yul\":11783:11787   */\n      dup9\n        /* \"#utility.yul\":11776:11812   */\n      sstore\n        /* \"#utility.yul\":11211:11822   */\n      pop\n      pop\n      pop\n        /* \"#utility.yul\":11174:12061   */\n    tag_278:\n      pop\n        /* \"#utility.yul\":10764:12067   */\n      pop\n      pop\n      pop\n        /* \"#utility.yul\":10672:12067   */\n      pop\n      pop\n      jump\t// out\n        /* \"#utility.yul\":12073:12496   */\n    tag_66:\n        /* \"#utility.yul\":12214:12218   */\n      0x00\n        /* \"#utility.yul\":12252:12254   */\n      0x40\n        /* \"#utility.yul\":12241:12250   */\n      dup3\n        /* \"#utility.yul\":12237:12255   */\n      add\n        /* \"#utility.yul\":12229:12255   */\n      swap1\n      pop\n        /* \"#utility.yul\":12301:12310   */\n      dup2\n        /* \"#utility.yul\":12295:12299   */\n      dup2\n        /* \"#utility.yul\":12291:12311   */\n      sub\n        /* \"#utility.yul\":12287:12288   */\n      0x00\n        /* \"#utility.yul\":12276:12285   */\n      dup4\n        /* \"#utility.yul\":12272:12289   */\n      add\n        /* \"#utility.yul\":12265:12312   */\n      mstore\n        /* \"#utility.yul\":12329:12407   */\n      tag_289\n        /* \"#utility.yul\":12402:12406   */\n      dup2\n        /* \"#utility.yul\":12393:12399   */\n      dup6\n        /* \"#utility.yul\":12329:12407   */\n      tag_112\n      jump\t// in\n    tag_289:\n        /* \"#utility.yul\":12321:12407   */\n      swap1\n      pop\n        /* \"#utility.yul\":12417:12489   */\n      tag_290\n        /* \"#utility.yul\":12485:12487   */\n      0x20\n        /* \"#utility.yul\":12474:12483   */\n      dup4\n        /* \"#utility.yul\":12470:12488   */\n      add\n        /* \"#utility.yul\":12461:12467   */\n      dup5\n        /* \"#utility.yul\":12417:12489   */\n      tag_104\n      jump\t// in\n    tag_290:\n        /* \"#utility.yul\":12073:12496   */\n      swap4\n      swap3\n      pop\n      pop\n      pop\n      jump\t// out\n        /* \"#utility.yul\":12502:12669   */\n    tag_142:\n        /* \"#utility.yul\":12642:12661   */\n      0x4974656d20616c726561647920736f6c64000000000000000000000000000000\n        /* \"#utility.yul\":12638:12639   */\n      0x00\n        /* \"#utility.yul\":12630:12636   */\n      dup3\n        /* \"#utility.yul\":12626:12640   */\n      add\n        /* \"#utility.yul\":12619:12662   */\n      mstore\n        /* \"#utility.yul\":12502:12669   */\n      pop\n      jump\t// out\n        /* \"#utility.yul\":12675:13041   */\n    tag_143:\n        /* \"#utility.yul\":12817:12820   */\n      0x00\n        /* \"#utility.yul\":12838:12905   */\n      tag_293\n        /* \"#utility.yul\":12902:12904   */\n      0x11\n        /* \"#utility.yul\":12897:12900   */\n      dup4\n        /* \"#utility.yul\":12838:12905   */\n      tag_109\n      jump\t// in\n    tag_293:\n        /* \"#utility.yul\":12831:12905   */\n      swap2\n      pop\n        /* \"#utility.yul\":12914:13007   */\n      tag_294\n        /* \"#utility.yul\":13003:13006   */\n      dup3\n        /* \"#utility.yul\":12914:13007   */\n      tag_142\n      jump\t// in\n    tag_294:\n        /* \"#utility.yul\":13032:13034   */\n      0x20\n        /* \"#utility.yul\":13027:13030   */\n      dup3\n        /* \"#utility.yul\":13023:13035   */\n      add\n        /* \"#utility.yul\":13016:13035   */\n      swap1\n      pop\n        /* \"#utility.yul\":12675:13041   */\n      swap2\n      swap1\n      pop\n      jump\t// out\n        /* \"#utility.yul\":13047:13466   */\n    tag_73:\n        /* \"#utility.yul\":13213:13217   */\n      0x00\n        /* \"#utility.yul\":13251:13253   */\n      0x20\n        /* \"#utility.yul\":13240:13249   */\n      dup3\n        /* \"#utility.yul\":13236:13254   */\n      add\n        /* \"#utility.yul\":13228:13254   */\n      swap1\n      pop\n        /* \"#utility.yul\":13300:13309   */\n      dup2\n        /* \"#utility.yul\":13294:13298   */\n      dup2\n        /* \"#utility.yul\":13290:13310   */\n      sub\n        /* \"#utility.yul\":13286:13287   */\n      0x00\n        /* \"#utility.yul\":13275:13284   */\n      dup4\n        /* \"#utility.yul\":13271:13288   */\n      add\n        /* \"#utility.yul\":13264:13311   */\n      mstore\n        /* \"#utility.yul\":13328:13459   */\n      tag_296\n        /* \"#utility.yul\":13454:13458   */\n      dup2\n        /* \"#utility.yul\":13328:13459   */\n      tag_143\n      jump\t// in\n    tag_296:\n        /* \"#utility.yul\":13320:13459   */\n      swap1\n      pop\n        /* \"#utility.yul\":13047:13466   */\n      swap2\n      swap1\n      pop\n      jump\t// out\n        /* \"#utility.yul\":13472:13640   */\n    tag_144:\n        /* \"#utility.yul\":13612:13632   */\n      0x496e73756666696369656e742066756e64730000000000000000000000000000\n        /* \"#utility.yul\":13608:13609   */\n      0x00\n        /* \"#utility.yul\":13600:13606   */\n      dup3\n        /* \"#utility.yul\":13596:13610   */\n      add\n        /* \"#utility.yul\":13589:13633   */\n      mstore\n        /* \"#utility.yul\":13472:13640   */\n      pop\n      jump\t// out\n        /* \"#utility.yul\":13646:14012   */\n    tag_145:\n        /* \"#utility.yul\":13788:13791   */\n      0x00\n        /* \"#utility.yul\":13809:13876   */\n      tag_299\n        /* \"#utility.yul\":13873:13875   */\n      0x12\n        /* \"#utility.yul\":13868:13871   */\n      dup4\n        /* \"#utility.yul\":13809:13876   */\n      tag_109\n      jump\t// in\n    tag_299:\n        /* \"#utility.yul\":13802:13876   */\n      swap2\n      pop\n        /* \"#utility.yul\":13885:13978   */\n      tag_300\n        /* \"#utility.yul\":13974:13977   */\n      dup3\n        /* \"#utility.yul\":13885:13978   */\n      tag_144\n      jump\t// in\n    tag_300:\n        /* \"#utility.yul\":14003:14005   */\n      0x20\n        /* \"#utility.yul\":13998:14001   */\n      dup3\n        /* \"#utility.yul\":13994:14006   */\n      add\n        /* \"#utility.yul\":13987:14006   */\n      swap1\n      pop\n        /* \"#utility.yul\":13646:14012   */\n      swap2\n      swap1\n      pop\n      jump\t// out\n        /* \"#utility.yul\":14018:14437   */\n    tag_76:\n        /* \"#utility.yul\":14184:14188   */\n      0x00\n        /* \"#utility.yul\":14222:14224   */\n      0x20\n        /* \"#utility.yul\":14211:14220   */\n      dup3\n        /* \"#utility.yul\":14207:14225   */\n      add\n        /* \"#utility.yul\":14199:14225   */\n      swap1\n      pop\n        /* \"#utility.yul\":14271:14280   */\n      dup2\n        /* \"#utility.yul\":14265:14269   */\n      dup2\n        /* \"#utility.yul\":14261:14281   */\n      sub\n        /* \"#utility.yul\":14257:14258   */\n      0x00\n        /* \"#utility.yul\":14246:14255   */\n      dup4\n        /* \"#utility.yul\":14242:14259   */\n      add\n        /* \"#utility.yul\":14235:14282   */\n      mstore\n        /* \"#utility.yul\":14299:14430   */\n      tag_302\n        /* \"#utility.yul\":14425:14429   */\n      dup2\n        /* \"#utility.yul\":14299:14430   */\n      tag_145\n      jump\t// in\n    tag_302:\n        /* \"#utility.yul\":14291:14430   */\n      swap1\n      pop\n        /* \"#utility.yul\":14018:14437   */\n      swap2\n      swap1\n      pop\n      jump\t// out\n\n    auxdata: 0xa2646970667358221220ee887731969483f8c7b195952cc4f9c8cae7c88f6b36ec5f78363a13d0aee32964736f6c634300081a0033\n}\n",
				"bytecode": {
					"linkReferences": {},
					"object": "608060405234801561000f575f80fd5b50335f73ffffffffffffffffffffffffffffffffffffffff168173ffffffffffffffffffffffffffffffffffffffff1603610081575f6040517f1e4fbdf70000000000000000000000000000000000000000000000000000000081526004016100789190610196565b60405180910390fd5b6100908161009660201b60201c565b506101af565b5f805f9054906101000a900473ffffffffffffffffffffffffffffffffffffffff169050815f806101000a81548173ffffffffffffffffffffffffffffffffffffffff021916908373ffffffffffffffffffffffffffffffffffffffff1602179055508173ffffffffffffffffffffffffffffffffffffffff168173ffffffffffffffffffffffffffffffffffffffff167f8be0079c531659141344cd1fd0a4f28419497f9722a3daafe3b4186f6b6457e060405160405180910390a35050565b5f73ffffffffffffffffffffffffffffffffffffffff82169050919050565b5f61018082610157565b9050919050565b61019081610176565b82525050565b5f6020820190506101a95f830184610187565b92915050565b610f54806101bc5f395ff3fe60806040526004361061006f575f3560e01c80638da5cb5b1161004d5780638da5cb5b146100f1578063c4b151411461011b578063e7fb74c714610145578063f2fde38b146101615761006f565b80633129e77314610073578063715018a6146100b35780638c551742146100c9575b5f80fd5b34801561007e575f80fd5b50610099600480360381019061009491906107ef565b610189565b6040516100aa9594939291906108f2565b60405180910390f35b3480156100be575f80fd5b506100c7610280565b005b3480156100d4575f80fd5b506100ef60048036038101906100ea9190610a76565b610293565b005b3480156100fc575f80fd5b506101056103e8565b6040516101129190610ad0565b60405180910390f35b348015610126575f80fd5b5061012f61040f565b60405161013c9190610ae9565b60405180910390f35b61015f600480360381019061015a91906107ef565b61041f565b005b34801561016c575f80fd5b5061018760048036038101906101829190610b2c565b6105b8565b005b5f8060605f805f60035f8881526020019081526020015f209050805f01549550806001015f9054906101000a900473ffffffffffffffffffffffffffffffffffffffff1694508060020180546101de90610b84565b80601f016020809104026020016040519081016040528092919081815260200182805461020a90610b84565b80156102555780601f1061022c57610100808354040283529160200191610255565b820191905f5260205f20905b81548152906001019060200180831161023857829003601f168201915b5050505050935080600301549250806004015f9054906101000a900460ff1691505091939590929450565b61028861063c565b6102915f6106c3565b565b61029b61063c565b6102a56001610784565b5f6102b06001610798565b90506040518060a001604052808281526020013373ffffffffffffffffffffffffffffffffffffffff1681526020018481526020018381526020015f151581525060035f8381526020019081526020015f205f820151815f01556020820151816001015f6101000a81548173ffffffffffffffffffffffffffffffffffffffff021916908373ffffffffffffffffffffffffffffffffffffffff16021790555060408201518160020190816103659190610d51565b50606082015181600301556080820151816004015f6101000a81548160ff0219169083151502179055509050503373ffffffffffffffffffffffffffffffffffffffff16817f1603f20f721362b0691bb408edb3cf01409cd56da9edd4627b178750b7dd49a885856040516103db929190610e20565b60405180910390a3505050565b5f805f9054906101000a900473ffffffffffffffffffffffffffffffffffffffff16905090565b5f61041a6002610798565b905090565b5f60035f8381526020019081526020015f2090505f1515816004015f9054906101000a900460ff16151514610489576040517f08c379a000000000000000000000000000000000000000000000000000000000815260040161048090610e98565b60405180910390fd5b80600301543410156104d0576040517f08c379a00000000000000000000000000000000000000000000000000000000081526004016104c790610f00565b60405180910390fd5b6001816004015f6101000a81548160ff0219169083151502179055506104f66002610784565b3373ffffffffffffffffffffffffffffffffffffffff16827fa574c741071bb18f51fa88c17aeefec514bebf670ca22a3736fba6504ecbb76383600301546040516105419190610ae9565b60405180910390a3806001015f9054906101000a900473ffffffffffffffffffffffffffffffffffffffff1673ffffffffffffffffffffffffffffffffffffffff166108fc826003015490811502906040515f60405180830381858888f193505050501580156105b3573d5f803e3d5ffd5b505050565b6105c061063c565b5f73ffffffffffffffffffffffffffffffffffffffff168173ffffffffffffffffffffffffffffffffffffffff1603610630575f6040517f1e4fbdf70000000000000000000000000000000000000000000000000000000081526004016106279190610ad0565b60405180910390fd5b610639816106c3565b50565b6106446107a4565b73ffffffffffffffffffffffffffffffffffffffff166106626103e8565b73ffffffffffffffffffffffffffffffffffffffff16146106c1576106856107a4565b6040517f118cdaa70000000000000000000000000000000000000000000000000000000081526004016106b89190610ad0565b60405180910390fd5b565b5f805f9054906101000a900473ffffffffffffffffffffffffffffffffffffffff169050815f806101000a81548173ffffffffffffffffffffffffffffffffffffffff021916908373ffffffffffffffffffffffffffffffffffffffff1602179055508173ffffffffffffffffffffffffffffffffffffffff168173ffffffffffffffffffffffffffffffffffffffff167f8be0079c531659141344cd1fd0a4f28419497f9722a3daafe3b4186f6b6457e060405160405180910390a35050565b6001815f015f828254019250508190555050565b5f815f01549050919050565b5f33905090565b5f604051905090565b5f80fd5b5f80fd5b5f819050919050565b6107ce816107bc565b81146107d8575f80fd5b50565b5f813590506107e9816107c5565b92915050565b5f60208284031215610804576108036107b4565b5b5f610811848285016107db565b91505092915050565b610823816107bc565b82525050565b5f73ffffffffffffffffffffffffffffffffffffffff82169050919050565b5f61085282610829565b9050919050565b61086281610848565b82525050565b5f81519050919050565b5f82825260208201905092915050565b8281835e5f83830152505050565b5f601f19601f8301169050919050565b5f6108aa82610868565b6108b48185610872565b93506108c4818560208601610882565b6108cd81610890565b840191505092915050565b5f8115159050919050565b6108ec816108d8565b82525050565b5f60a0820190506109055f83018861081a565b6109126020830187610859565b818103604083015261092481866108a0565b9050610933606083018561081a565b61094060808301846108e3565b9695505050505050565b5f80fd5b5f80fd5b7f4e487b71000000000000000000000000000000000000000000000000000000005f52604160045260245ffd5b61098882610890565b810181811067ffffffffffffffff821117156109a7576109a6610952565b5b80604052505050565b5f6109b96107ab565b90506109c5828261097f565b919050565b5f67ffffffffffffffff8211156109e4576109e3610952565b5b6109ed82610890565b9050602081019050919050565b828183375f83830152505050565b5f610a1a610a15846109ca565b6109b0565b905082815260208101848484011115610a3657610a3561094e565b5b610a418482856109fa565b509392505050565b5f82601f830112610a5d57610a5c61094a565b5b8135610a6d848260208601610a08565b91505092915050565b5f8060408385031215610a8c57610a8b6107b4565b5b5f83013567ffffffffffffffff811115610aa957610aa86107b8565b5b610ab585828601610a49565b9250506020610ac6858286016107db565b9150509250929050565b5f602082019050610ae35f830184610859565b92915050565b5f602082019050610afc5f83018461081a565b92915050565b610b0b81610848565b8114610b15575f80fd5b50565b5f81359050610b2681610b02565b92915050565b5f60208284031215610b4157610b406107b4565b5b5f610b4e84828501610b18565b91505092915050565b7f4e487b71000000000000000000000000000000000000000000000000000000005f52602260045260245ffd5b5f6002820490506001821680610b9b57607f821691505b602082108103610bae57610bad610b57565b5b50919050565b5f819050815f5260205f209050919050565b5f6020601f8301049050919050565b5f82821b905092915050565b5f60088302610c107fffffffffffffffffffffffffffffffffffffffffffffffffffffffffffffffff82610bd5565b610c1a8683610bd5565b95508019841693508086168417925050509392505050565b5f819050919050565b5f610c55610c50610c4b846107bc565b610c32565b6107bc565b9050919050565b5f819050919050565b610c6e83610c3b565b610c82610c7a82610c5c565b848454610be1565b825550505050565b5f90565b610c96610c8a565b610ca1818484610c65565b505050565b5b81811015610cc457610cb95f82610c8e565b600181019050610ca7565b5050565b601f821115610d0957610cda81610bb4565b610ce384610bc6565b81016020851015610cf2578190505b610d06610cfe85610bc6565b830182610ca6565b50505b505050565b5f82821c905092915050565b5f610d295f1984600802610d0e565b1980831691505092915050565b5f610d418383610d1a565b9150826002028217905092915050565b610d5a82610868565b67ffffffffffffffff811115610d7357610d72610952565b5b610d7d8254610b84565b610d88828285610cc8565b5f60209050601f831160018114610db9575f8415610da7578287015190505b610db18582610d36565b865550610e18565b601f198416610dc786610bb4565b5f5b82811015610dee57848901518255600182019150602085019450602081019050610dc9565b86831015610e0b5784890151610e07601f891682610d1a565b8355505b6001600288020188555050505b505050505050565b5f6040820190508181035f830152610e3881856108a0565b9050610e47602083018461081a565b9392505050565b7f4974656d20616c726561647920736f6c640000000000000000000000000000005f82015250565b5f610e82601183610872565b9150610e8d82610e4e565b602082019050919050565b5f6020820190508181035f830152610eaf81610e76565b9050919050565b7f496e73756666696369656e742066756e647300000000000000000000000000005f82015250565b5f610eea601283610872565b9150610ef582610eb6565b602082019050919050565b5f6020820190508181035f830152610f1781610ede565b905091905056fea2646970667358221220ee887731969483f8c7b195952cc4f9c8cae7c88f6b36ec5f78363a13d0aee32964736f6c634300081a0033",
					"opcodes": "PUSH1 0x80 PUSH1 0x40 MSTORE CALLVALUE DUP1 ISZERO PUSH2 0xF JUMPI PUSH0 DUP1 REVERT JUMPDEST POP CALLER PUSH0 PUSH20 0xFFFFFFFFFFFFFFFFFFFFFFFFFFFFFFFFFFFFFFFF AND DUP2 PUSH20 0xFFFFFFFFFFFFFFFFFFFFFFFFFFFFFFFFFFFFFFFF AND SUB PUSH2 0x81 JUMPI PUSH0 PUSH1 0x40 MLOAD PUSH32 0x1E4FBDF700000000000000000000000000000000000000000000000000000000 DUP2 MSTORE PUSH1 0x4 ADD PUSH2 0x78 SWAP2 SWAP1 PUSH2 0x196 JUMP JUMPDEST PUSH1 0x40 MLOAD DUP1 SWAP2 SUB SWAP1 REVERT JUMPDEST PUSH2 0x90 DUP2 PUSH2 0x96 PUSH1 0x20 SHL PUSH1 0x20 SHR JUMP JUMPDEST POP PUSH2 0x1AF JUMP JUMPDEST PUSH0 DUP1 PUSH0 SWAP1 SLOAD SWAP1 PUSH2 0x100 EXP SWAP1 DIV PUSH20 0xFFFFFFFFFFFFFFFFFFFFFFFFFFFFFFFFFFFFFFFF AND SWAP1 POP DUP2 PUSH0 DUP1 PUSH2 0x100 EXP DUP2 SLOAD DUP2 PUSH20 0xFFFFFFFFFFFFFFFFFFFFFFFFFFFFFFFFFFFFFFFF MUL NOT AND SWAP1 DUP4 PUSH20 0xFFFFFFFFFFFFFFFFFFFFFFFFFFFFFFFFFFFFFFFF AND MUL OR SWAP1 SSTORE POP DUP2 PUSH20 0xFFFFFFFFFFFFFFFFFFFFFFFFFFFFFFFFFFFFFFFF AND DUP2 PUSH20 0xFFFFFFFFFFFFFFFFFFFFFFFFFFFFFFFFFFFFFFFF AND PUSH32 0x8BE0079C531659141344CD1FD0A4F28419497F9722A3DAAFE3B4186F6B6457E0 PUSH1 0x40 MLOAD PUSH1 0x40 MLOAD DUP1 SWAP2 SUB SWAP1 LOG3 POP POP JUMP JUMPDEST PUSH0 PUSH20 0xFFFFFFFFFFFFFFFFFFFFFFFFFFFFFFFFFFFFFFFF DUP3 AND SWAP1 POP SWAP2 SWAP1 POP JUMP JUMPDEST PUSH0 PUSH2 0x180 DUP3 PUSH2 0x157 JUMP JUMPDEST SWAP1 POP SWAP2 SWAP1 POP JUMP JUMPDEST PUSH2 0x190 DUP2 PUSH2 0x176 JUMP JUMPDEST DUP3 MSTORE POP POP JUMP JUMPDEST PUSH0 PUSH1 0x20 DUP3 ADD SWAP1 POP PUSH2 0x1A9 PUSH0 DUP4 ADD DUP5 PUSH2 0x187 JUMP JUMPDEST SWAP3 SWAP2 POP POP JUMP JUMPDEST PUSH2 0xF54 DUP1 PUSH2 0x1BC PUSH0 CODECOPY PUSH0 RETURN INVALID PUSH1 0x80 PUSH1 0x40 MSTORE PUSH1 0x4 CALLDATASIZE LT PUSH2 0x6F JUMPI PUSH0 CALLDATALOAD PUSH1 0xE0 SHR DUP1 PUSH4 0x8DA5CB5B GT PUSH2 0x4D JUMPI DUP1 PUSH4 0x8DA5CB5B EQ PUSH2 0xF1 JUMPI DUP1 PUSH4 0xC4B15141 EQ PUSH2 0x11B JUMPI DUP1 PUSH4 0xE7FB74C7 EQ PUSH2 0x145 JUMPI DUP1 PUSH4 0xF2FDE38B EQ PUSH2 0x161 JUMPI PUSH2 0x6F JUMP JUMPDEST DUP1 PUSH4 0x3129E773 EQ PUSH2 0x73 JUMPI DUP1 PUSH4 0x715018A6 EQ PUSH2 0xB3 JUMPI DUP1 PUSH4 0x8C551742 EQ PUSH2 0xC9 JUMPI JUMPDEST PUSH0 DUP1 REVERT JUMPDEST CALLVALUE DUP1 ISZERO PUSH2 0x7E JUMPI PUSH0 DUP1 REVERT JUMPDEST POP PUSH2 0x99 PUSH1 0x4 DUP1 CALLDATASIZE SUB DUP2 ADD SWAP1 PUSH2 0x94 SWAP2 SWAP1 PUSH2 0x7EF JUMP JUMPDEST PUSH2 0x189 JUMP JUMPDEST PUSH1 0x40 MLOAD PUSH2 0xAA SWAP6 SWAP5 SWAP4 SWAP3 SWAP2 SWAP1 PUSH2 0x8F2 JUMP JUMPDEST PUSH1 0x40 MLOAD DUP1 SWAP2 SUB SWAP1 RETURN JUMPDEST CALLVALUE DUP1 ISZERO PUSH2 0xBE JUMPI PUSH0 DUP1 REVERT JUMPDEST POP PUSH2 0xC7 PUSH2 0x280 JUMP JUMPDEST STOP JUMPDEST CALLVALUE DUP1 ISZERO PUSH2 0xD4 JUMPI PUSH0 DUP1 REVERT JUMPDEST POP PUSH2 0xEF PUSH1 0x4 DUP1 CALLDATASIZE SUB DUP2 ADD SWAP1 PUSH2 0xEA SWAP2 SWAP1 PUSH2 0xA76 JUMP JUMPDEST PUSH2 0x293 JUMP JUMPDEST STOP JUMPDEST CALLVALUE DUP1 ISZERO PUSH2 0xFC JUMPI PUSH0 DUP1 REVERT JUMPDEST POP PUSH2 0x105 PUSH2 0x3E8 JUMP JUMPDEST PUSH1 0x40 MLOAD PUSH2 0x112 SWAP2 SWAP1 PUSH2 0xAD0 JUMP JUMPDEST PUSH1 0x40 MLOAD DUP1 SWAP2 SUB SWAP1 RETURN JUMPDEST CALLVALUE DUP1 ISZERO PUSH2 0x126 JUMPI PUSH0 DUP1 REVERT JUMPDEST POP PUSH2 0x12F PUSH2 0x40F JUMP JUMPDEST PUSH1 0x40 MLOAD PUSH2 0x13C SWAP2 SWAP1 PUSH2 0xAE9 JUMP JUMPDEST PUSH1 0x40 MLOAD DUP1 SWAP2 SUB SWAP1 RETURN JUMPDEST PUSH2 0x15F PUSH1 0x4 DUP1 CALLDATASIZE SUB DUP2 ADD SWAP1 PUSH2 0x15A SWAP2 SWAP1 PUSH2 0x7EF JUMP JUMPDEST PUSH2 0x41F JUMP JUMPDEST STOP JUMPDEST CALLVALUE DUP1 ISZERO PUSH2 0x16C JUMPI PUSH0 DUP1 REVERT JUMPDEST POP PUSH2 0x187 PUSH1 0x4 DUP1 CALLDATASIZE SUB DUP2 ADD SWAP1 PUSH2 0x182 SWAP2 SWAP1 PUSH2 0xB2C JUMP JUMPDEST PUSH2 0x5B8 JUMP JUMPDEST STOP JUMPDEST PUSH0 DUP1 PUSH1 0x60 PUSH0 DUP1 PUSH0 PUSH1 0x3 PUSH0 DUP9 DUP2 MSTORE PUSH1 0x20 ADD SWAP1 DUP2 MSTORE PUSH1 0x20 ADD PUSH0 KECCAK256 SWAP1 POP DUP1 PUSH0 ADD SLOAD SWAP6 POP DUP1 PUSH1 0x1 ADD PUSH0 SWAP1 SLOAD SWAP1 PUSH2 0x100 EXP SWAP1 DIV PUSH20 0xFFFFFFFFFFFFFFFFFFFFFFFFFFFFFFFFFFFFFFFF AND SWAP5 POP DUP1 PUSH1 0x2 ADD DUP1 SLOAD PUSH2 0x1DE SWAP1 PUSH2 0xB84 JUMP JUMPDEST DUP1 PUSH1 0x1F ADD PUSH1 0x20 DUP1 SWAP2 DIV MUL PUSH1 0x20 ADD PUSH1 0x40 MLOAD SWAP1 DUP2 ADD PUSH1 0x40 MSTORE DUP1 SWAP3 SWAP2 SWAP1 DUP2 DUP2 MSTORE PUSH1 0x20 ADD DUP3 DUP1 SLOAD PUSH2 0x20A SWAP1 PUSH2 0xB84 JUMP JUMPDEST DUP1 ISZERO PUSH2 0x255 JUMPI DUP1 PUSH1 0x1F LT PUSH2 0x22C JUMPI PUSH2 0x100 DUP1 DUP4 SLOAD DIV MUL DUP4 MSTORE SWAP2 PUSH1 0x20 ADD SWAP2 PUSH2 0x255 JUMP JUMPDEST DUP3 ADD SWAP2 SWAP1 PUSH0 MSTORE PUSH1 0x20 PUSH0 KECCAK256 SWAP1 JUMPDEST DUP2 SLOAD DUP2 MSTORE SWAP1 PUSH1 0x1 ADD SWAP1 PUSH1 0x20 ADD DUP1 DUP4 GT PUSH2 0x238 JUMPI DUP3 SWAP1 SUB PUSH1 0x1F AND DUP3 ADD SWAP2 JUMPDEST POP POP POP POP POP SWAP4 POP DUP1 PUSH1 0x3 ADD SLOAD SWAP3 POP DUP1 PUSH1 0x4 ADD PUSH0 SWAP1 SLOAD SWAP1 PUSH2 0x100 EXP SWAP1 DIV PUSH1 0xFF AND SWAP2 POP POP SWAP2 SWAP4 SWAP6 SWAP1 SWAP3 SWAP5 POP JUMP JUMPDEST PUSH2 0x288 PUSH2 0x63C JUMP JUMPDEST PUSH2 0x291 PUSH0 PUSH2 0x6C3 JUMP JUMPDEST JUMP JUMPDEST PUSH2 0x29B PUSH2 0x63C JUMP JUMPDEST PUSH2 0x2A5 PUSH1 0x1 PUSH2 0x784 JUMP JUMPDEST PUSH0 PUSH2 0x2B0 PUSH1 0x1 PUSH2 0x798 JUMP JUMPDEST SWAP1 POP PUSH1 0x40 MLOAD DUP1 PUSH1 0xA0 ADD PUSH1 0x40 MSTORE DUP1 DUP3 DUP2 MSTORE PUSH1 0x20 ADD CALLER PUSH20 0xFFFFFFFFFFFFFFFFFFFFFFFFFFFFFFFFFFFFFFFF AND DUP2 MSTORE PUSH1 0x20 ADD DUP5 DUP2 MSTORE PUSH1 0x20 ADD DUP4 DUP2 MSTORE PUSH1 0x20 ADD PUSH0 ISZERO ISZERO DUP2 MSTORE POP PUSH1 0x3 PUSH0 DUP4 DUP2 MSTORE PUSH1 0x20 ADD SWAP1 DUP2 MSTORE PUSH1 0x20 ADD PUSH0 KECCAK256 PUSH0 DUP3 ADD MLOAD DUP2 PUSH0 ADD SSTORE PUSH1 0x20 DUP3 ADD MLOAD DUP2 PUSH1 0x1 ADD PUSH0 PUSH2 0x100 EXP DUP2 SLOAD DUP2 PUSH20 0xFFFFFFFFFFFFFFFFFFFFFFFFFFFFFFFFFFFFFFFF MUL NOT AND SWAP1 DUP4 PUSH20 0xFFFFFFFFFFFFFFFFFFFFFFFFFFFFFFFFFFFFFFFF AND MUL OR SWAP1 SSTORE POP PUSH1 0x40 DUP3 ADD MLOAD DUP2 PUSH1 0x2 ADD SWAP1 DUP2 PUSH2 0x365 SWAP2 SWAP1 PUSH2 0xD51 JUMP JUMPDEST POP PUSH1 0x60 DUP3 ADD MLOAD DUP2 PUSH1 0x3 ADD SSTORE PUSH1 0x80 DUP3 ADD MLOAD DUP2 PUSH1 0x4 ADD PUSH0 PUSH2 0x100 EXP DUP2 SLOAD DUP2 PUSH1 0xFF MUL NOT AND SWAP1 DUP4 ISZERO ISZERO MUL OR SWAP1 SSTORE POP SWAP1 POP POP CALLER PUSH20 0xFFFFFFFFFFFFFFFFFFFFFFFFFFFFFFFFFFFFFFFF AND DUP2 PUSH32 0x1603F20F721362B0691BB408EDB3CF01409CD56DA9EDD4627B178750B7DD49A8 DUP6 DUP6 PUSH1 0x40 MLOAD PUSH2 0x3DB SWAP3 SWAP2 SWAP1 PUSH2 0xE20 JUMP JUMPDEST PUSH1 0x40 MLOAD DUP1 SWAP2 SUB SWAP1 LOG3 POP POP POP JUMP JUMPDEST PUSH0 DUP1 PUSH0 SWAP1 SLOAD SWAP1 PUSH2 0x100 EXP SWAP1 DIV PUSH20 0xFFFFFFFFFFFFFFFFFFFFFFFFFFFFFFFFFFFFFFFF AND SWAP1 POP SWAP1 JUMP JUMPDEST PUSH0 PUSH2 0x41A PUSH1 0x2 PUSH2 0x798 JUMP JUMPDEST SWAP1 POP SWAP1 JUMP JUMPDEST PUSH0 PUSH1 0x3 PUSH0 DUP4 DUP2 MSTORE PUSH1 0x20 ADD SWAP1 DUP2 MSTORE PUSH1 0x20 ADD PUSH0 KECCAK256 SWAP1 POP PUSH0 ISZERO ISZERO DUP2 PUSH1 0x4 ADD PUSH0 SWAP1 SLOAD SWAP1 PUSH2 0x100 EXP SWAP1 DIV PUSH1 0xFF AND ISZERO ISZERO EQ PUSH2 0x489 JUMPI PUSH1 0x40 MLOAD PUSH32 0x8C379A000000000000000000000000000000000000000000000000000000000 DUP2 MSTORE PUSH1 0x4 ADD PUSH2 0x480 SWAP1 PUSH2 0xE98 JUMP JUMPDEST PUSH1 0x40 MLOAD DUP1 SWAP2 SUB SWAP1 REVERT JUMPDEST DUP1 PUSH1 0x3 ADD SLOAD CALLVALUE LT ISZERO PUSH2 0x4D0 JUMPI PUSH1 0x40 MLOAD PUSH32 0x8C379A000000000000000000000000000000000000000000000000000000000 DUP2 MSTORE PUSH1 0x4 ADD PUSH2 0x4C7 SWAP1 PUSH2 0xF00 JUMP JUMPDEST PUSH1 0x40 MLOAD DUP1 SWAP2 SUB SWAP1 REVERT JUMPDEST PUSH1 0x1 DUP2 PUSH1 0x4 ADD PUSH0 PUSH2 0x100 EXP DUP2 SLOAD DUP2 PUSH1 0xFF MUL NOT AND SWAP1 DUP4 ISZERO ISZERO MUL OR SWAP1 SSTORE POP PUSH2 0x4F6 PUSH1 0x2 PUSH2 0x784 JUMP JUMPDEST CALLER PUSH20 0xFFFFFFFFFFFFFFFFFFFFFFFFFFFFFFFFFFFFFFFF AND DUP3 PUSH32 0xA574C741071BB18F51FA88C17AEEFEC514BEBF670CA22A3736FBA6504ECBB763 DUP4 PUSH1 0x3 ADD SLOAD PUSH1 0x40 MLOAD PUSH2 0x541 SWAP2 SWAP1 PUSH2 0xAE9 JUMP JUMPDEST PUSH1 0x40 MLOAD DUP1 SWAP2 SUB SWAP1 LOG3 DUP1 PUSH1 0x1 ADD PUSH0 SWAP1 SLOAD SWAP1 PUSH2 0x100 EXP SWAP1 DIV PUSH20 0xFFFFFFFFFFFFFFFFFFFFFFFFFFFFFFFFFFFFFFFF AND PUSH20 0xFFFFFFFFFFFFFFFFFFFFFFFFFFFFFFFFFFFFFFFF AND PUSH2 0x8FC DUP3 PUSH1 0x3 ADD SLOAD SWAP1 DUP2 ISZERO MUL SWAP1 PUSH1 0x40 MLOAD PUSH0 PUSH1 0x40 MLOAD DUP1 DUP4 SUB DUP2 DUP6 DUP9 DUP9 CALL SWAP4 POP POP POP POP ISZERO DUP1 ISZERO PUSH2 0x5B3 JUMPI RETURNDATASIZE PUSH0 DUP1 RETURNDATACOPY RETURNDATASIZE PUSH0 REVERT JUMPDEST POP POP POP JUMP JUMPDEST PUSH2 0x5C0 PUSH2 0x63C JUMP JUMPDEST PUSH0 PUSH20 0xFFFFFFFFFFFFFFFFFFFFFFFFFFFFFFFFFFFFFFFF AND DUP2 PUSH20 0xFFFFFFFFFFFFFFFFFFFFFFFFFFFFFFFFFFFFFFFF AND SUB PUSH2 0x630 JUMPI PUSH0 PUSH1 0x40 MLOAD PUSH32 0x1E4FBDF700000000000000000000000000000000000000000000000000000000 DUP2 MSTORE PUSH1 0x4 ADD PUSH2 0x627 SWAP2 SWAP1 PUSH2 0xAD0 JUMP JUMPDEST PUSH1 0x40 MLOAD DUP1 SWAP2 SUB SWAP1 REVERT JUMPDEST PUSH2 0x639 DUP2 PUSH2 0x6C3 JUMP JUMPDEST POP JUMP JUMPDEST PUSH2 0x644 PUSH2 0x7A4 JUMP JUMPDEST PUSH20 0xFFFFFFFFFFFFFFFFFFFFFFFFFFFFFFFFFFFFFFFF AND PUSH2 0x662 PUSH2 0x3E8 JUMP JUMPDEST PUSH20 0xFFFFFFFFFFFFFFFFFFFFFFFFFFFFFFFFFFFFFFFF AND EQ PUSH2 0x6C1 JUMPI PUSH2 0x685 PUSH2 0x7A4 JUMP JUMPDEST PUSH1 0x40 MLOAD PUSH32 0x118CDAA700000000000000000000000000000000000000000000000000000000 DUP2 MSTORE PUSH1 0x4 ADD PUSH2 0x6B8 SWAP2 SWAP1 PUSH2 0xAD0 JUMP JUMPDEST PUSH1 0x40 MLOAD DUP1 SWAP2 SUB SWAP1 REVERT JUMPDEST JUMP JUMPDEST PUSH0 DUP1 PUSH0 SWAP1 SLOAD SWAP1 PUSH2 0x100 EXP SWAP1 DIV PUSH20 0xFFFFFFFFFFFFFFFFFFFFFFFFFFFFFFFFFFFFFFFF AND SWAP1 POP DUP2 PUSH0 DUP1 PUSH2 0x100 EXP DUP2 SLOAD DUP2 PUSH20 0xFFFFFFFFFFFFFFFFFFFFFFFFFFFFFFFFFFFFFFFF MUL NOT AND SWAP1 DUP4 PUSH20 0xFFFFFFFFFFFFFFFFFFFFFFFFFFFFFFFFFFFFFFFF AND MUL OR SWAP1 SSTORE POP DUP2 PUSH20 0xFFFFFFFFFFFFFFFFFFFFFFFFFFFFFFFFFFFFFFFF AND DUP2 PUSH20 0xFFFFFFFFFFFFFFFFFFFFFFFFFFFFFFFFFFFFFFFF AND PUSH32 0x8BE0079C531659141344CD1FD0A4F28419497F9722A3DAAFE3B4186F6B6457E0 PUSH1 0x40 MLOAD PUSH1 0x40 MLOAD DUP1 SWAP2 SUB SWAP1 LOG3 POP POP JUMP JUMPDEST PUSH1 0x1 DUP2 PUSH0 ADD PUSH0 DUP3 DUP3 SLOAD ADD SWAP3 POP POP DUP2 SWAP1 SSTORE POP POP JUMP JUMPDEST PUSH0 DUP2 PUSH0 ADD SLOAD SWAP1 POP SWAP2 SWAP1 POP JUMP JUMPDEST PUSH0 CALLER SWAP1 POP SWAP1 JUMP JUMPDEST PUSH0 PUSH1 0x40 MLOAD SWAP1 POP SWAP1 JUMP JUMPDEST PUSH0 DUP1 REVERT JUMPDEST PUSH0 DUP1 REVERT JUMPDEST PUSH0 DUP2 SWAP1 POP SWAP2 SWAP1 POP JUMP JUMPDEST PUSH2 0x7CE DUP2 PUSH2 0x7BC JUMP JUMPDEST DUP2 EQ PUSH2 0x7D8 JUMPI PUSH0 DUP1 REVERT JUMPDEST POP JUMP JUMPDEST PUSH0 DUP2 CALLDATALOAD SWAP1 POP PUSH2 0x7E9 DUP2 PUSH2 0x7C5 JUMP JUMPDEST SWAP3 SWAP2 POP POP JUMP JUMPDEST PUSH0 PUSH1 0x20 DUP3 DUP5 SUB SLT ISZERO PUSH2 0x804 JUMPI PUSH2 0x803 PUSH2 0x7B4 JUMP JUMPDEST JUMPDEST PUSH0 PUSH2 0x811 DUP5 DUP3 DUP6 ADD PUSH2 0x7DB JUMP JUMPDEST SWAP2 POP POP SWAP3 SWAP2 POP POP JUMP JUMPDEST PUSH2 0x823 DUP2 PUSH2 0x7BC JUMP JUMPDEST DUP3 MSTORE POP POP JUMP JUMPDEST PUSH0 PUSH20 0xFFFFFFFFFFFFFFFFFFFFFFFFFFFFFFFFFFFFFFFF DUP3 AND SWAP1 POP SWAP2 SWAP1 POP JUMP JUMPDEST PUSH0 PUSH2 0x852 DUP3 PUSH2 0x829 JUMP JUMPDEST SWAP1 POP SWAP2 SWAP1 POP JUMP JUMPDEST PUSH2 0x862 DUP2 PUSH2 0x848 JUMP JUMPDEST DUP3 MSTORE POP POP JUMP JUMPDEST PUSH0 DUP2 MLOAD SWAP1 POP SWAP2 SWAP1 POP JUMP JUMPDEST PUSH0 DUP3 DUP3 MSTORE PUSH1 0x20 DUP3 ADD SWAP1 POP SWAP3 SWAP2 POP POP JUMP JUMPDEST DUP3 DUP2 DUP4 MCOPY PUSH0 DUP4 DUP4 ADD MSTORE POP POP POP JUMP JUMPDEST PUSH0 PUSH1 0x1F NOT PUSH1 0x1F DUP4 ADD AND SWAP1 POP SWAP2 SWAP1 POP JUMP JUMPDEST PUSH0 PUSH2 0x8AA DUP3 PUSH2 0x868 JUMP JUMPDEST PUSH2 0x8B4 DUP2 DUP6 PUSH2 0x872 JUMP JUMPDEST SWAP4 POP PUSH2 0x8C4 DUP2 DUP6 PUSH1 0x20 DUP7 ADD PUSH2 0x882 JUMP JUMPDEST PUSH2 0x8CD DUP2 PUSH2 0x890 JUMP JUMPDEST DUP5 ADD SWAP2 POP POP SWAP3 SWAP2 POP POP JUMP JUMPDEST PUSH0 DUP2 ISZERO ISZERO SWAP1 POP SWAP2 SWAP1 POP JUMP JUMPDEST PUSH2 0x8EC DUP2 PUSH2 0x8D8 JUMP JUMPDEST DUP3 MSTORE POP POP JUMP JUMPDEST PUSH0 PUSH1 0xA0 DUP3 ADD SWAP1 POP PUSH2 0x905 PUSH0 DUP4 ADD DUP9 PUSH2 0x81A JUMP JUMPDEST PUSH2 0x912 PUSH1 0x20 DUP4 ADD DUP8 PUSH2 0x859 JUMP JUMPDEST DUP2 DUP2 SUB PUSH1 0x40 DUP4 ADD MSTORE PUSH2 0x924 DUP2 DUP7 PUSH2 0x8A0 JUMP JUMPDEST SWAP1 POP PUSH2 0x933 PUSH1 0x60 DUP4 ADD DUP6 PUSH2 0x81A JUMP JUMPDEST PUSH2 0x940 PUSH1 0x80 DUP4 ADD DUP5 PUSH2 0x8E3 JUMP JUMPDEST SWAP7 SWAP6 POP POP POP POP POP POP JUMP JUMPDEST PUSH0 DUP1 REVERT JUMPDEST PUSH0 DUP1 REVERT JUMPDEST PUSH32 0x4E487B7100000000000000000000000000000000000000000000000000000000 PUSH0 MSTORE PUSH1 0x41 PUSH1 0x4 MSTORE PUSH1 0x24 PUSH0 REVERT JUMPDEST PUSH2 0x988 DUP3 PUSH2 0x890 JUMP JUMPDEST DUP2 ADD DUP2 DUP2 LT PUSH8 0xFFFFFFFFFFFFFFFF DUP3 GT OR ISZERO PUSH2 0x9A7 JUMPI PUSH2 0x9A6 PUSH2 0x952 JUMP JUMPDEST JUMPDEST DUP1 PUSH1 0x40 MSTORE POP POP POP JUMP JUMPDEST PUSH0 PUSH2 0x9B9 PUSH2 0x7AB JUMP JUMPDEST SWAP1 POP PUSH2 0x9C5 DUP3 DUP3 PUSH2 0x97F JUMP JUMPDEST SWAP2 SWAP1 POP JUMP JUMPDEST PUSH0 PUSH8 0xFFFFFFFFFFFFFFFF DUP3 GT ISZERO PUSH2 0x9E4 JUMPI PUSH2 0x9E3 PUSH2 0x952 JUMP JUMPDEST JUMPDEST PUSH2 0x9ED DUP3 PUSH2 0x890 JUMP JUMPDEST SWAP1 POP PUSH1 0x20 DUP2 ADD SWAP1 POP SWAP2 SWAP1 POP JUMP JUMPDEST DUP3 DUP2 DUP4 CALLDATACOPY PUSH0 DUP4 DUP4 ADD MSTORE POP POP POP JUMP JUMPDEST PUSH0 PUSH2 0xA1A PUSH2 0xA15 DUP5 PUSH2 0x9CA JUMP JUMPDEST PUSH2 0x9B0 JUMP JUMPDEST SWAP1 POP DUP3 DUP2 MSTORE PUSH1 0x20 DUP2 ADD DUP5 DUP5 DUP5 ADD GT ISZERO PUSH2 0xA36 JUMPI PUSH2 0xA35 PUSH2 0x94E JUMP JUMPDEST JUMPDEST PUSH2 0xA41 DUP5 DUP3 DUP6 PUSH2 0x9FA JUMP JUMPDEST POP SWAP4 SWAP3 POP POP POP JUMP JUMPDEST PUSH0 DUP3 PUSH1 0x1F DUP4 ADD SLT PUSH2 0xA5D JUMPI PUSH2 0xA5C PUSH2 0x94A JUMP JUMPDEST JUMPDEST DUP2 CALLDATALOAD PUSH2 0xA6D DUP5 DUP3 PUSH1 0x20 DUP7 ADD PUSH2 0xA08 JUMP JUMPDEST SWAP2 POP POP SWAP3 SWAP2 POP POP JUMP JUMPDEST PUSH0 DUP1 PUSH1 0x40 DUP4 DUP6 SUB SLT ISZERO PUSH2 0xA8C JUMPI PUSH2 0xA8B PUSH2 0x7B4 JUMP JUMPDEST JUMPDEST PUSH0 DUP4 ADD CALLDATALOAD PUSH8 0xFFFFFFFFFFFFFFFF DUP2 GT ISZERO PUSH2 0xAA9 JUMPI PUSH2 0xAA8 PUSH2 0x7B8 JUMP JUMPDEST JUMPDEST PUSH2 0xAB5 DUP6 DUP3 DUP7 ADD PUSH2 0xA49 JUMP JUMPDEST SWAP3 POP POP PUSH1 0x20 PUSH2 0xAC6 DUP6 DUP3 DUP7 ADD PUSH2 0x7DB JUMP JUMPDEST SWAP2 POP POP SWAP3 POP SWAP3 SWAP1 POP JUMP JUMPDEST PUSH0 PUSH1 0x20 DUP3 ADD SWAP1 POP PUSH2 0xAE3 PUSH0 DUP4 ADD DUP5 PUSH2 0x859 JUMP JUMPDEST SWAP3 SWAP2 POP POP JUMP JUMPDEST PUSH0 PUSH1 0x20 DUP3 ADD SWAP1 POP PUSH2 0xAFC PUSH0 DUP4 ADD DUP5 PUSH2 0x81A JUMP JUMPDEST SWAP3 SWAP2 POP POP JUMP JUMPDEST PUSH2 0xB0B DUP2 PUSH2 0x848 JUMP JUMPDEST DUP2 EQ PUSH2 0xB15 JUMPI PUSH0 DUP1 REVERT JUMPDEST POP JUMP JUMPDEST PUSH0 DUP2 CALLDATALOAD SWAP1 POP PUSH2 0xB26 DUP2 PUSH2 0xB02 JUMP JUMPDEST SWAP3 SWAP2 POP POP JUMP JUMPDEST PUSH0 PUSH1 0x20 DUP3 DUP5 SUB SLT ISZERO PUSH2 0xB41 JUMPI PUSH2 0xB40 PUSH2 0x7B4 JUMP JUMPDEST JUMPDEST PUSH0 PUSH2 0xB4E DUP5 DUP3 DUP6 ADD PUSH2 0xB18 JUMP JUMPDEST SWAP2 POP POP SWAP3 SWAP2 POP POP JUMP JUMPDEST PUSH32 0x4E487B7100000000000000000000000000000000000000000000000000000000 PUSH0 MSTORE PUSH1 0x22 PUSH1 0x4 MSTORE PUSH1 0x24 PUSH0 REVERT JUMPDEST PUSH0 PUSH1 0x2 DUP3 DIV SWAP1 POP PUSH1 0x1 DUP3 AND DUP1 PUSH2 0xB9B JUMPI PUSH1 0x7F DUP3 AND SWAP2 POP JUMPDEST PUSH1 0x20 DUP3 LT DUP2 SUB PUSH2 0xBAE JUMPI PUSH2 0xBAD PUSH2 0xB57 JUMP JUMPDEST JUMPDEST POP SWAP2 SWAP1 POP JUMP JUMPDEST PUSH0 DUP2 SWAP1 POP DUP2 PUSH0 MSTORE PUSH1 0x20 PUSH0 KECCAK256 SWAP1 POP SWAP2 SWAP1 POP JUMP JUMPDEST PUSH0 PUSH1 0x20 PUSH1 0x1F DUP4 ADD DIV SWAP1 POP SWAP2 SWAP1 POP JUMP JUMPDEST PUSH0 DUP3 DUP3 SHL SWAP1 POP SWAP3 SWAP2 POP POP JUMP JUMPDEST PUSH0 PUSH1 0x8 DUP4 MUL PUSH2 0xC10 PUSH32 0xFFFFFFFFFFFFFFFFFFFFFFFFFFFFFFFFFFFFFFFFFFFFFFFFFFFFFFFFFFFFFFFF DUP3 PUSH2 0xBD5 JUMP JUMPDEST PUSH2 0xC1A DUP7 DUP4 PUSH2 0xBD5 JUMP JUMPDEST SWAP6 POP DUP1 NOT DUP5 AND SWAP4 POP DUP1 DUP7 AND DUP5 OR SWAP3 POP POP POP SWAP4 SWAP3 POP POP POP JUMP JUMPDEST PUSH0 DUP2 SWAP1 POP SWAP2 SWAP1 POP JUMP JUMPDEST PUSH0 PUSH2 0xC55 PUSH2 0xC50 PUSH2 0xC4B DUP5 PUSH2 0x7BC JUMP JUMPDEST PUSH2 0xC32 JUMP JUMPDEST PUSH2 0x7BC JUMP JUMPDEST SWAP1 POP SWAP2 SWAP1 POP JUMP JUMPDEST PUSH0 DUP2 SWAP1 POP SWAP2 SWAP1 POP JUMP JUMPDEST PUSH2 0xC6E DUP4 PUSH2 0xC3B JUMP JUMPDEST PUSH2 0xC82 PUSH2 0xC7A DUP3 PUSH2 0xC5C JUMP JUMPDEST DUP5 DUP5 SLOAD PUSH2 0xBE1 JUMP JUMPDEST DUP3 SSTORE POP POP POP POP JUMP JUMPDEST PUSH0 SWAP1 JUMP JUMPDEST PUSH2 0xC96 PUSH2 0xC8A JUMP JUMPDEST PUSH2 0xCA1 DUP2 DUP5 DUP5 PUSH2 0xC65 JUMP JUMPDEST POP POP POP JUMP JUMPDEST JUMPDEST DUP2 DUP2 LT ISZERO PUSH2 0xCC4 JUMPI PUSH2 0xCB9 PUSH0 DUP3 PUSH2 0xC8E JUMP JUMPDEST PUSH1 0x1 DUP2 ADD SWAP1 POP PUSH2 0xCA7 JUMP JUMPDEST POP POP JUMP JUMPDEST PUSH1 0x1F DUP3 GT ISZERO PUSH2 0xD09 JUMPI PUSH2 0xCDA DUP2 PUSH2 0xBB4 JUMP JUMPDEST PUSH2 0xCE3 DUP5 PUSH2 0xBC6 JUMP JUMPDEST DUP2 ADD PUSH1 0x20 DUP6 LT ISZERO PUSH2 0xCF2 JUMPI DUP2 SWAP1 POP JUMPDEST PUSH2 0xD06 PUSH2 0xCFE DUP6 PUSH2 0xBC6 JUMP JUMPDEST DUP4 ADD DUP3 PUSH2 0xCA6 JUMP JUMPDEST POP POP JUMPDEST POP POP POP JUMP JUMPDEST PUSH0 DUP3 DUP3 SHR SWAP1 POP SWAP3 SWAP2 POP POP JUMP JUMPDEST PUSH0 PUSH2 0xD29 PUSH0 NOT DUP5 PUSH1 0x8 MUL PUSH2 0xD0E JUMP JUMPDEST NOT DUP1 DUP4 AND SWAP2 POP POP SWAP3 SWAP2 POP POP JUMP JUMPDEST PUSH0 PUSH2 0xD41 DUP4 DUP4 PUSH2 0xD1A JUMP JUMPDEST SWAP2 POP DUP3 PUSH1 0x2 MUL DUP3 OR SWAP1 POP SWAP3 SWAP2 POP POP JUMP JUMPDEST PUSH2 0xD5A DUP3 PUSH2 0x868 JUMP JUMPDEST PUSH8 0xFFFFFFFFFFFFFFFF DUP2 GT ISZERO PUSH2 0xD73 JUMPI PUSH2 0xD72 PUSH2 0x952 JUMP JUMPDEST JUMPDEST PUSH2 0xD7D DUP3 SLOAD PUSH2 0xB84 JUMP JUMPDEST PUSH2 0xD88 DUP3 DUP3 DUP6 PUSH2 0xCC8 JUMP JUMPDEST PUSH0 PUSH1 0x20 SWAP1 POP PUSH1 0x1F DUP4 GT PUSH1 0x1 DUP2 EQ PUSH2 0xDB9 JUMPI PUSH0 DUP5 ISZERO PUSH2 0xDA7 JUMPI DUP3 DUP8 ADD MLOAD SWAP1 POP JUMPDEST PUSH2 0xDB1 DUP6 DUP3 PUSH2 0xD36 JUMP JUMPDEST DUP7 SSTORE POP PUSH2 0xE18 JUMP JUMPDEST PUSH1 0x1F NOT DUP5 AND PUSH2 0xDC7 DUP7 PUSH2 0xBB4 JUMP JUMPDEST PUSH0 JUMPDEST DUP3 DUP2 LT ISZERO PUSH2 0xDEE JUMPI DUP5 DUP10 ADD MLOAD DUP3 SSTORE PUSH1 0x1 DUP3 ADD SWAP2 POP PUSH1 0x20 DUP6 ADD SWAP5 POP PUSH1 0x20 DUP2 ADD SWAP1 POP PUSH2 0xDC9 JUMP JUMPDEST DUP7 DUP4 LT ISZERO PUSH2 0xE0B JUMPI DUP5 DUP10 ADD MLOAD PUSH2 0xE07 PUSH1 0x1F DUP10 AND DUP3 PUSH2 0xD1A JUMP JUMPDEST DUP4 SSTORE POP JUMPDEST PUSH1 0x1 PUSH1 0x2 DUP9 MUL ADD DUP9 SSTORE POP POP POP JUMPDEST POP POP POP POP POP POP JUMP JUMPDEST PUSH0 PUSH1 0x40 DUP3 ADD SWAP1 POP DUP2 DUP2 SUB PUSH0 DUP4 ADD MSTORE PUSH2 0xE38 DUP2 DUP6 PUSH2 0x8A0 JUMP JUMPDEST SWAP1 POP PUSH2 0xE47 PUSH1 0x20 DUP4 ADD DUP5 PUSH2 0x81A JUMP JUMPDEST SWAP4 SWAP3 POP POP POP JUMP JUMPDEST PUSH32 0x4974656D20616C726561647920736F6C64000000000000000000000000000000 PUSH0 DUP3 ADD MSTORE POP JUMP JUMPDEST PUSH0 PUSH2 0xE82 PUSH1 0x11 DUP4 PUSH2 0x872 JUMP JUMPDEST SWAP2 POP PUSH2 0xE8D DUP3 PUSH2 0xE4E JUMP JUMPDEST PUSH1 0x20 DUP3 ADD SWAP1 POP SWAP2 SWAP1 POP JUMP JUMPDEST PUSH0 PUSH1 0x20 DUP3 ADD SWAP1 POP DUP2 DUP2 SUB PUSH0 DUP4 ADD MSTORE PUSH2 0xEAF DUP2 PUSH2 0xE76 JUMP JUMPDEST SWAP1 POP SWAP2 SWAP1 POP JUMP JUMPDEST PUSH32 0x496E73756666696369656E742066756E64730000000000000000000000000000 PUSH0 DUP3 ADD MSTORE POP JUMP JUMPDEST PUSH0 PUSH2 0xEEA PUSH1 0x12 DUP4 PUSH2 0x872 JUMP JUMPDEST SWAP2 POP PUSH2 0xEF5 DUP3 PUSH2 0xEB6 JUMP JUMPDEST PUSH1 0x20 DUP3 ADD SWAP1 POP SWAP2 SWAP1 POP JUMP JUMPDEST PUSH0 PUSH1 0x20 DUP3 ADD SWAP1 POP DUP2 DUP2 SUB PUSH0 DUP4 ADD MSTORE PUSH2 0xF17 DUP2 PUSH2 0xEDE JUMP JUMPDEST SWAP1 POP SWAP2 SWAP1 POP JUMP INVALID LOG2 PUSH5 0x6970667358 0x22 SLT KECCAK256 0xEE DUP9 PUSH24 0x31969483F8C7B195952CC4F9C8CAE7C88F6B36EC5F78363A SGT 0xD0 0xAE 0xE3 0x29 PUSH5 0x736F6C6343 STOP ADDMOD BYTE STOP CALLER "
				},
				"gasEstimates": {
					"creation": {
						"codeDepositCost": "784800",
						"executionCost": "infinite",
						"totalCost": "infinite"
					},
					"external": {
						"buyItem(uint256)": "infinite",
						"createItem(string,uint256)": "infinite",
						"getItem(uint256)": "infinite",
						"getItemsSold()": "2501",
						"owner()": "2515",
						"renounceOwnership()": "infinite",
						"transferOwnership(address)": "infinite"
					}
				},
				"methodIdentifiers": {
					"buyItem(uint256)": "e7fb74c7",
					"createItem(string,uint256)": "8c551742",
					"getItem(uint256)": "3129e773",
					"getItemsSold()": "c4b15141",
					"owner()": "8da5cb5b",
					"renounceOwnership()": "715018a6",
					"transferOwnership(address)": "f2fde38b"
				}
			},
			"storageLayout": {
				"storage": [
					{
						"astId": 8,
						"contract": "contracts/nft.sol:NFTMarketplace",
						"label": "_owner",
						"offset": 0,
						"slot": "0",
						"type": "t_address"
					},
					{
						"astId": 5681,
						"contract": "contracts/nft.sol:NFTMarketplace",
						"label": "_itemIds",
						"offset": 0,
						"slot": "1",
						"type": "t_struct(Counter)1675_storage"
					},
					{
						"astId": 5684,
						"contract": "contracts/nft.sol:NFTMarketplace",
						"label": "_itemsSold",
						"offset": 0,
						"slot": "2",
						"type": "t_struct(Counter)1675_storage"
					},
					{
						"astId": 5700,
						"contract": "contracts/nft.sol:NFTMarketplace",
						"label": "_items",
						"offset": 0,
						"slot": "3",
						"type": "t_mapping(t_uint256,t_struct(NFTItem)5695_storage)"
					}
				],
				"types": {
					"t_address": {
						"encoding": "inplace",
						"label": "address",
						"numberOfBytes": "20"
					},
					"t_bool": {
						"encoding": "inplace",
						"label": "bool",
						"numberOfBytes": "1"
					},
					"t_mapping(t_uint256,t_struct(NFTItem)5695_storage)": {
						"encoding": "mapping",
						"key": "t_uint256",
						"label": "mapping(uint256 => struct NFTMarketplace.NFTItem)",
						"numberOfBytes": "32",
						"value": "t_struct(NFTItem)5695_storage"
					},
					"t_string_storage": {
						"encoding": "bytes",
						"label": "string",
						"numberOfBytes": "32"
					},
					"t_struct(Counter)1675_storage": {
						"encoding": "inplace",
						"label": "struct Counters.Counter",
						"members": [
							{
								"astId": 1674,
								"contract": "contracts/nft.sol:NFTMarketplace",
								"label": "_value",
								"offset": 0,
								"slot": "0",
								"type": "t_uint256"
							}
						],
						"numberOfBytes": "32"
					},
					"t_struct(NFTItem)5695_storage": {
						"encoding": "inplace",
						"label": "struct NFTMarketplace.NFTItem",
						"members": [
							{
								"astId": 5686,
								"contract": "contracts/nft.sol:NFTMarketplace",
								"label": "id",
								"offset": 0,
								"slot": "0",
								"type": "t_uint256"
							},
							{
								"astId": 5688,
								"contract": "contracts/nft.sol:NFTMarketplace",
								"label": "creator",
								"offset": 0,
								"slot": "1",
								"type": "t_address"
							},
							{
								"astId": 5690,
								"contract": "contracts/nft.sol:NFTMarketplace",
								"label": "uri",
								"offset": 0,
								"slot": "2",
								"type": "t_string_storage"
							},
							{
								"astId": 5692,
								"contract": "contracts/nft.sol:NFTMarketplace",
								"label": "price",
								"offset": 0,
								"slot": "3",
								"type": "t_uint256"
							},
							{
								"astId": 5694,
								"contract": "contracts/nft.sol:NFTMarketplace",
								"label": "sold",
								"offset": 0,
								"slot": "4",
								"type": "t_bool"
							}
						],
						"numberOfBytes": "160"
					},
					"t_uint256": {
						"encoding": "inplace",
						"label": "uint256",
						"numberOfBytes": "32"
					}
				}
			},
			"userdoc": {
				"kind": "user",
				"methods": {},
				"version": 1
			}
		}
	}
}